{
  "contractName": "Medicine",
  "abi": [
    {
      "inputs": [
        {
          "name": "Manu",
          "type": "address"
        },
        {
          "name": "Des",
          "type": "bytes32"
        },
        {
          "name": "RM",
          "type": "bytes32"
        },
        {
          "name": "Quant",
          "type": "uint256"
        },
        {
          "name": "Shpr",
          "type": "address"
        },
        {
          "name": "Rcvr",
          "type": "address"
        },
        {
          "name": "RcvrType",
          "type": "uint256"
        }
      ],
      "payable": false,
      "stateMutability": "nonpayable",
      "type": "constructor"
    },
    {
      "anonymous": false,
      "inputs": [
        {
          "indexed": true,
          "name": "BatchID",
          "type": "address"
        },
        {
          "indexed": true,
          "name": "Shipper",
          "type": "address"
        },
        {
          "indexed": true,
          "name": "Receiver",
          "type": "address"
        },
        {
          "indexed": false,
          "name": "TransporterType",
          "type": "uint256"
        },
        {
          "indexed": false,
          "name": "Status",
          "type": "uint256"
        }
      ],
      "name": "ShippmentUpdate",
      "type": "event"
    },
    {
      "constant": true,
      "inputs": [],
      "name": "getMedicineInfo",
      "outputs": [
        {
          "name": "Manu",
          "type": "address"
        },
        {
          "name": "Des",
          "type": "bytes32"
        },
        {
          "name": "RM",
          "type": "bytes32"
        },
        {
          "name": "Quant",
          "type": "uint256"
        },
        {
          "name": "Shpr",
          "type": "address"
        }
      ],
      "payable": false,
      "stateMutability": "view",
      "type": "function"
    },
    {
      "constant": true,
      "inputs": [],
      "name": "getWholDiPh",
      "outputs": [
        {
          "name": "WholDiPh",
          "type": "address[3]"
        }
      ],
      "payable": false,
      "stateMutability": "view",
      "type": "function"
    },
    {
      "constant": true,
      "inputs": [],
      "name": "getBatchIDStatus",
      "outputs": [
        {
          "name": "",
          "type": "uint256"
        }
      ],
      "payable": false,
      "stateMutability": "view",
      "type": "function"
    },
    {
      "constant": false,
      "inputs": [
        {
          "name": "Shpr",
          "type": "address"
        }
      ],
      "name": "pickPackage",
      "outputs": [],
      "payable": false,
      "stateMutability": "nonpayable",
      "type": "function"
    },
    {
      "constant": false,
      "inputs": [
        {
          "name": "Rcvr",
          "type": "address"
        }
      ],
      "name": "receivedPackage",
      "outputs": [
        {
          "name": "RcvrType",
          "type": "uint256"
        }
      ],
      "payable": false,
      "stateMutability": "nonpayable",
      "type": "function"
    },
    {
      "constant": false,
      "inputs": [
        {
          "name": "receiver",
          "type": "address"
        },
        {
          "name": "sender",
          "type": "address"
        }
      ],
      "name": "sendWholDis",
      "outputs": [],
      "payable": false,
      "stateMutability": "nonpayable",
      "type": "function"
    },
    {
      "constant": false,
      "inputs": [
        {
          "name": "receiver",
          "type": "address"
        }
      ],
      "name": "recievedWholDis",
      "outputs": [],
      "payable": false,
      "stateMutability": "nonpayable",
      "type": "function"
    },
    {
      "constant": false,
      "inputs": [
        {
          "name": "receiver",
          "type": "address"
        },
        {
          "name": "sender",
          "type": "address"
        }
      ],
      "name": "sendDistPhar",
      "outputs": [],
      "payable": false,
      "stateMutability": "nonpayable",
      "type": "function"
    },
    {
      "constant": false,
      "inputs": [
        {
          "name": "receiver",
          "type": "address"
        }
      ],
      "name": "recievedDistPhar",
      "outputs": [],
      "payable": false,
      "stateMutability": "nonpayable",
      "type": "function"
    }
  ],
  "bytecode": "0x608060405234801561001057600080fd5b5060405160e080610b14833981018060405260e081101561003057600080fd5b508051602082015160408301516060840151608085015160a086015160c09096015160008054600160a060020a0319908116600160a060020a03808a1691821790935560058054831690911790556001878155600287905560038690556004805490921692851692909217905595969495939492939192918114156100cf5760068054600160a060020a031916600160a060020a0384161790556100f4565b80600214156100f45760078054600160a060020a031916600160a060020a0384161790555b50505050505050610a0a8061010a6000396000f3fe608060405260043610610092577c010000000000000000000000000000000000000000000000000000000060003504630cef5cb681146100975780634577bc19146100d45780634dd3ca7b1461012157806352b999681461015457806358dedf9f14610199578063638e9a3d146101cc578063d2f3fcc7146101ff578063e002c8a514610214578063ed40abbf14610265575b600080fd5b3480156100a357600080fd5b506100d2600480360360408110156100ba57600080fd5b50600160a060020a03813581169160200135166102a0565b005b3480156100e057600080fd5b506100e9610358565b6040518082606080838360005b8381101561010e5781810151838201526020016100f6565b5050505090500191505060405180910390f35b34801561012d57600080fd5b506100d26004803603602081101561014457600080fd5b5035600160a060020a0316610393565b34801561016057600080fd5b506101876004803603602081101561017757600080fd5b5035600160a060020a0316610422565b60408051918252519081900360200190f35b3480156101a557600080fd5b506100d2600480360360208110156101bc57600080fd5b5035600160a060020a031661068f565b3480156101d857600080fd5b506100d2600480360360208110156101ef57600080fd5b5035600160a060020a03166106fb565b34801561020b57600080fd5b506101876108c8565b34801561022057600080fd5b506102296108e8565b60408051600160a060020a0396871681526020810195909552848101939093526060840191909152909216608082015290519081900360a00190f35b34801561027157600080fd5b506100d26004803603604081101561028857600080fd5b50600160a060020a038135811691602001351661090b565b600654600160a060020a03828116911614610305576040805160e560020a62461bcd02815260206004820152601a60248201527f546869732057686f6c6573616c65722069732073656e6465722e000000000000604482015290519081900360640190fd5b6007805473ffffffffffffffffffffffffffffffffffffffff1916600160a060020a03841617905560025b6008805460a060020a60ff02191660a060020a83600681111561034f57fe5b02179055505050565b61036061099f565b5060408051606081018252600654600160a060020a03908116825260075481166020830152600854169181019190915290565b600854600160a060020a038281169116146103f8576040805160e560020a62461bcd02815260206004820152601a60248201527f5468697320506861726d6163792069732072656369657665722e000000000000604482015290519081900360640190fd5b60065b6008805460a060020a60ff02191660a060020a83600681111561041a57fe5b021790555050565b600654600090600160a060020a038381169116148061044e5750600754600160a060020a038381169116145b15156104ca576040805160e560020a62461bcd02815260206004820152603560248201527f4f6e6c792057686f6c6573616c6572206f72204469737472756275746572206360448201527f616e2063616c6c20746869732066756e6374696f6e0000000000000000000000606482015290519081900360840190fd5b60085460019060a060020a900460ff1660068111156104e557fe5b101561053b576040805160e560020a62461bcd02815260206004820152601960248201527f50726f64756374206e6f74207069636b65642075702079657400000000000000604482015290519081900360640190fd5b600654600160a060020a03838116911614801561056f5750600160085460a060020a900460ff16600681111561056d57fe5b145b156105e2576008805460a060020a60ff021916740300000000000000000000000000000000000000001790556006546004546040805160028152600360208201528151600160a060020a03948516949093169230926000805160206109bf833981519152928290030190a450600161068a565b600754600160a060020a0383811691161480156106165750600260085460a060020a900460ff16600681111561061457fe5b145b1561068a576008805460a060020a60ff0219167404000000000000000000000000000000000000000017905560075460048054604080516003815260208101939093528051600160a060020a03948516949092169230926000805160206109bf833981519152929181900390910190a45060025b919050565b600754600160a060020a038281169116146106f4576040805160e560020a62461bcd02815260206004820152601d60248201527f546869732044697374726962757465722069732072656369657665722e000000604482015290519081900360640190fd5b60046103fb565b600454600160a060020a03828116911614610786576040805160e560020a62461bcd02815260206004820152602360248201527f4f6e6c7920536869707065722063616e2063616c6c20746869732066756e637460448201527f696f6e0000000000000000000000000000000000000000000000000000000000606482015290519081900360840190fd5b600060085460a060020a900460ff1660068111156107a057fe5b146107f5576040805160e560020a62461bcd02815260206004820152601c60248201527f5061636b616765206d75737420626520617420537570706c6965722e00000000604482015290519081900360640190fd5b600654600160a060020a03161561085f576008805460a060020a60ff02191660a060020a17905560065460045460408051600180825260208201528151600160a060020a03948516949093169230926000805160206109bf833981519152928290030190a46108c5565b6008805460a060020a60ff0219167402000000000000000000000000000000000000000017905560075460045460408051600180825260208201528151600160a060020a03948516949093169230926000805160206109bf833981519152928290030190a45b50565b60085460009060a060020a900460ff1660068111156108e357fe5b905090565b600554600154600254600354600454600160a060020a0394851694169091929394565b600754600160a060020a03828116911614610970576040805160e560020a62461bcd02815260206004820152601b60248201527f546869732044697374726962757465722069732073656e6465722e0000000000604482015290519081900360640190fd5b6008805473ffffffffffffffffffffffffffffffffffffffff1916600160a060020a0384161790556005610330565b606060405190810160405280600390602082028038833950919291505056fe7e89c4b1a4e2b51aae84eb1f90e8a34cb792ece5ac5cb63db4830c891220b28da165627a7a72305820fcb0a593a67c27b4632172c4e8df5cf7a1a2b4cf3b368ce206bcc8ff3efef4f80029",
  "source": "pragma solidity >=0.4.25 <0.6.0;\r\n\r\n/** Medicine Smart Contract **/\r\n/// @title Medicin\r\ncontract Medicine {\r\n\r\n    /// @notice\r\n    address Admin;\r\n\r\n    enum medicineStatus {\r\n        atmanuf,\r\n        pickedforWhol,\r\n        pickedforDist,\r\n        deliveredatWhol,\r\n        deliveredatDist,\r\n        pickedforPharm,\r\n        deliveredatPharm\r\n    }\r\n\r\n    // address batchid;\r\n    bytes32 description;\r\n    /// @notice\r\n    bytes32 rawmaterials;\r\n    /// @notice\r\n    uint quantity;\r\n    /// @notice\r\n    address shipper;\r\n    /// @notice\r\n    address manufacturer;\r\n    /// @notice\r\n    address wholesaler;\r\n    /// @notice\r\n    address distributer;\r\n    /// @notice\r\n    address pharma;\r\n    /// @notice\r\n    medicineStatus status;\r\n\r\n    event ShippmentUpdate(\r\n        address indexed BatchID,\r\n        address indexed Shipper,\r\n        address indexed Receiver,\r\n        uint TransporterType,\r\n        uint Status\r\n    );\r\n\r\n    /// @notice\r\n    /// @dev Creation of new Medicine Batch by Manufacturer in Lab\r\n    /// @param Manu Manufacturer Ethereum Network Address\r\n    /// @param Des Description of Medicine Batch\r\n    /// @param RM Raw Materials for Medicine\r\n    /// @param Quant Number of Units\r\n    /// @param Shpr Shipper(Transporter) Ethereum Network Address\r\n    /// @param Rcvr Receiver Ethereum Network Address\r\n    /// @param RcvrType Receiver Type either Wholesaler(1) or Distributer(2)\r\n    constructor(\r\n        address Manu,\r\n        bytes32 Des,\r\n        bytes32 RM,\r\n        uint Quant,\r\n        address Shpr,\r\n        address Rcvr,\r\n        uint RcvrType\r\n    ) public {\r\n        Admin = Manu;\r\n        manufacturer = Manu;\r\n        description = Des;\r\n        rawmaterials = RM;\r\n        quantity = Quant;\r\n        shipper = Shpr;\r\n        if(RcvrType == 1)\r\n        {\r\n          wholesaler = Rcvr;\r\n        }\r\n        else if(RcvrType == 2)\r\n        {\r\n          distributer = Rcvr;\r\n        }\r\n    }\r\n\r\n    /// @notice\r\n    /// @dev Get Medicine Batch basic Details\r\n    /// @return Medicine Batch Details\r\n    function getMedicineInfo () public view returns(\r\n        address Manu,\r\n        bytes32 Des,\r\n        bytes32 RM,\r\n        uint Quant,\r\n        address Shpr\r\n    )\r\n    {\r\n      return(\r\n        manufacturer,\r\n        description,\r\n        rawmaterials,\r\n        quantity,\r\n        shipper\r\n        );\r\n    }\r\n\r\n    /// @notice\r\n    /// @dev Get Address of Wholesaler, Distributer and Pharmacy\r\n    /// @return Address Array\r\n    function getWholDiPh() public view returns(address[3] memory WholDiPh)\r\n    {\r\n        return ([wholesaler,distributer,pharma]);\r\n    }\r\n\r\n    /// @notice\r\n    /// @dev Get Medicine Batch Transaction Status\r\n    /// @return Medicine Transaction Status\r\n    function getBatchIDStatus() public view returns(uint)\r\n    {\r\n        return uint(status);\r\n    }\r\n\r\n    /// @notice\r\n    /// @dev Pick Medicine Batch by Shipper(Transporter)\r\n    /// @param Shpr Shipper Ethereum Network Address\r\n    function pickPackage(address Shpr) public\r\n    {\r\n        require(Shpr == shipper, \"Only Shipper can call this function\");\r\n        require(status == medicineStatus(0), \"Package must be at Supplier.\");\r\n\r\n        if(wholesaler!=address(0x0))\r\n        {\r\n            status = medicineStatus(1);\r\n            emit ShippmentUpdate(address(this),shipper,wholesaler,1,1);\r\n        }\r\n        else{\r\n            status = medicineStatus(2);\r\n            emit ShippmentUpdate(address(this),shipper,distributer,1,1);\r\n        }\r\n    }\r\n\r\n    /// @notice\r\n    /// @dev Received Medicine Batch by Wholesaler or Distributer\r\n    /// @param Rcvr Wholesaler or Distributer\r\n    function receivedPackage(address Rcvr) public returns(uint RcvrType)\r\n    {\r\n      require(Rcvr == wholesaler || Rcvr == distributer, \"Only Wholesaler or Distrubuter can call this function\");\r\n      require(uint(status) >= 1, \"Product not picked up yet\");\r\n\r\n        if(Rcvr == wholesaler && status == medicineStatus(1))\r\n        {\r\n          status = medicineStatus(3);\r\n          emit ShippmentUpdate(address(this),shipper,wholesaler,2,3);\r\n          return 1;\r\n        }\r\n        else if(Rcvr == distributer && status == medicineStatus(2))\r\n        {\r\n          status = medicineStatus(4);\r\n          emit ShippmentUpdate(address(this),shipper,distributer,3,4);\r\n          return 2;\r\n        }\r\n    }\r\n\r\n    /// @notice\r\n    /// @dev Pick to deliver Medicine from Wholesaler to Distrubuter\r\n    /// @param receiver Distributer Ethereum Network Address\r\n    /// @param sender Wholesaler Ethereum Network Address\r\n    function sendWholDis(address receiver, address sender) public\r\n    {\r\n      require(wholesaler == sender, \"This Wholesaler is sender.\");\r\n      distributer = receiver;\r\n      status = medicineStatus(2);\r\n    }\r\n\r\n    /// @notice\r\n    /// @dev Recieved Medicine by Distributer\r\n    /// @param receiver Distributer Ethereum Network Address\r\n    function recievedWholDis(address receiver) public\r\n    {\r\n      require(distributer == receiver, \"This Distributer is reciever.\");\r\n      status = medicineStatus(4);\r\n    }\r\n\r\n    /// @notice\r\n    /// @dev Pick from Distributer to Pharmacy\r\n    /// @param receiver Pharmacy Ethereum Network Address\r\n    /// @param sender Distributer Ethereum Network Address\r\n    function sendDistPhar(address receiver, address sender) public\r\n    {\r\n        require(distributer == sender, \"This Distributer is sender.\");\r\n        pharma = receiver;\r\n        status = medicineStatus(5);\r\n    }\r\n\r\n    /// @notice\r\n    /// @dev Update Medicine Batch transaction Status(Recieved) in between Distributer and Pharmacy\r\n    /// @param receiver Pharmacy Ethereum Network Address\r\n    function recievedDistPhar(address receiver) public\r\n    {\r\n        require(pharma == receiver, \"This Pharmacy is reciever.\");\r\n        status = medicineStatus(6);\r\n    }\r\n}\r\n",
  "sourcePath": "C:\\Users\\P. R. RAJAGOPAL\\Desktop\\BLockchain\\Blockchain_SupplyChain\\contracts\\Medicine.sol",
  "compiler": {
    "name": "solc",
    "version": "0.5.1+commit.c8a2cb62.Emscripten.clang"
  },
  "schemaVersion": "3.0.22",
  "updatedAt": "2020-06-25T06:58:06.843Z",
  "devdoc": {
    "methods": {
      "constructor": {
        "params": {
          "RcvrType": "Receiver Type either Wholesaler(1) or Distributer(2)"
        }
      },
      "getBatchIDStatus()": {
        "return": "Medicine Transaction Status"
      },
      "getMedicineInfo()": {
        "return": "Medicine Batch Details"
      },
      "getWholDiPh()": {
        "return": "Address Array"
      },
      "pickPackage(address)": {
        "params": {
          "Shpr": "Shipper Ethereum Network Address"
        }
      },
      "receivedPackage(address)": {
        "params": {
          "Rcvr": "Wholesaler or Distributer"
        }
      },
      "recievedDistPhar(address)": {
        "params": {
          "receiver": "Pharmacy Ethereum Network Address"
        }
      },
      "recievedWholDis(address)": {
        "params": {
          "receiver": "Distributer Ethereum Network Address"
        }
      },
      "sendDistPhar(address,address)": {
        "params": {
          "sender": "Distributer Ethereum Network Address"
        }
      },
      "sendWholDis(address,address)": {
        "params": {
          "sender": "Wholesaler Ethereum Network Address"
        }
      }
    },
    "title": "Medicin"
  },
  "userdoc": {
    "methods": {}
  }
}