{
  "contractName": "MedicineWholDist",
  "abi": [
    {
      "inputs": [
        {
          "name": "BatchID",
          "type": "address"
        },
        {
          "name": "Sender",
          "type": "address"
        },
        {
          "name": "Shipper",
          "type": "address"
        },
        {
          "name": "Receiver",
          "type": "address"
        }
      ],
      "payable": false,
      "stateMutability": "nonpayable",
      "type": "constructor"
    },
    {
      "constant": false,
      "inputs": [
        {
          "name": "BatchID",
          "type": "address"
        },
        {
          "name": "Shipper",
          "type": "address"
        }
      ],
      "name": "pickWholDist",
      "outputs": [],
      "payable": false,
      "stateMutability": "nonpayable",
      "type": "function"
    },
    {
      "constant": false,
      "inputs": [
        {
          "name": "BatchID",
          "type": "address"
        },
        {
          "name": "Receiver",
          "type": "address"
        }
      ],
      "name": "recieveWholDis",
      "outputs": [],
      "payable": false,
      "stateMutability": "nonpayable",
      "type": "function"
    },
    {
      "constant": true,
      "inputs": [],
      "name": "getBatchIDStatus",
      "outputs": [
        {
          "name": "",
          "type": "uint256"
        }
      ],
      "payable": false,
      "stateMutability": "view",
      "type": "function"
    }
  ],
  "bytecode": "0x608060405234801561001057600080fd5b506040516080806104ba8339810180604052608081101561003057600080fd5b5080516020820151604083015160609093015160008054600160a060020a0319908116600160a060020a03948516908117835560018054831696861696909617909555600280548216909517909455600380548516958416959095179094556004805490931691161760a060020a60ff02191690556104059081906100b590396000f3fe608060405260043610610050577c01000000000000000000000000000000000000000000000000000000006000350463c442d4fa8114610055578063d2f3fcc714610092578063d8d15ce7146100b9575b600080fd5b34801561006157600080fd5b506100906004803603604081101561007857600080fd5b50600160a060020a03813581169160200135166100f4565b005b34801561009e57600080fd5b506100a7610262565b60408051918252519081900360200190f35b3480156100c557600080fd5b50610090600480360360408110156100dc57600080fd5b50600160a060020a0381358116916020013516610293565b600454600160a060020a0382811691161461019657604080517f08c379a000000000000000000000000000000000000000000000000000000000815260206004820152603260248201527f4f6e6c79205265636569766572284469737472696275746572292063616e206360448201527f616c6c20746869732066756e6374696f6e2e0000000000000000000000000000606482015290519081900360840190fd5b600480546002919074ff000000000000000000000000000000000000000019167401000000000000000000000000000000000000000083021790555081600160a060020a03166358dedf9f826040518263ffffffff167c01000000000000000000000000000000000000000000000000000000000281526004018082600160a060020a0316600160a060020a03168152602001915050600060405180830381600087803b15801561024657600080fd5b505af115801561025a573d6000803e3d6000fd5b505050505050565b60045460009074010000000000000000000000000000000000000000900460ff16600281111561028e57fe5b905090565b600354600160a060020a0382811691161461033457604080517f08c379a0000000000000000000000000000000000000000000000000000000008152602060048201526024808201527f4f6e6c7920536869707065722063616e2063616c6c20746869732066756e637460448201527f696f6e2e00000000000000000000000000000000000000000000000000000000606482015290519081900360840190fd5b6004805474ff000000000000000000000000000000000000000019167401000000000000000000000000000000000000000017808255600254604080517f0cef5cb6000000000000000000000000000000000000000000000000000000008152600160a060020a039384169481019490945290821660248401525190841691630cef5cb691604480830192600092919082900301818387803b15801561024657600080fdfea165627a7a7230582071bac6aa6dd05abff9b97ae5eb5ed405f65ba6467ee81592dd855049dae71d9b0029",
  "source": "pragma solidity >=0.4.25 <0.6.0;\r\n\r\nimport './Medicine.sol';\r\n\r\n/* MedicineWholDist */\r\n/// @title MedicineWholDist\r\n/// @notice\r\n/// @dev Sub Contract for Medicine Transaction between Wholesaler and Distributer\r\ncontract MedicineWholDist {\r\n    /// @notice\r\n    address Admin;\r\n\r\n    enum packageStatus {atmanuf, picked, delivered}\r\n\r\n    /// @notice\r\n    address batchid;\r\n    /// @notice\r\n    address sender;\r\n    /// @notice\r\n    address shipper;\r\n    /// @notice\r\n    address receiver;\r\n    /// @notice\r\n    packageStatus status;\r\n\r\n    /// @notice\r\n    /// @dev Create SubContract for Medicine Transaction\r\n    /// @param BatchID BatchID of the Medicine\r\n    /// @param Sender Wholesaler Ethereum Network Address\r\n    /// @param Shipper Transporter Ethereum Network Address\r\n    /// @param Receiver Distributer Ethereum Network Address\r\n    constructor(address BatchID, address Sender, address Shipper, address Receiver) public\r\n    {\r\n      Admin = Sender;\r\n      batchid = BatchID;\r\n      sender = Sender;\r\n      shipper = Shipper;\r\n      receiver = Receiver;\r\n      status = packageStatus(0);\r\n    }\r\n\r\n    /// @notice\r\n    /// @dev Pick Medicine Batch by Transporter from Wholesaler\r\n    /// @param BatchID BatchID of Medicine\r\n    /// @param Shipper Transporter Ethereum Network Address\r\n    function pickWholDist(address BatchID, address Shipper) public\r\n    {\r\n        require(Shipper == shipper, \"Only Shipper can call this function.\");\r\n        status = packageStatus(1);\r\n\r\n        Medicine(BatchID).sendWholDis(receiver,sender);\r\n    }\r\n\r\n    /// @notice\r\n    /// @dev Recieved Medicine Batch by Distributer\r\n    /// @param BatchID BatchID of the Medicine\r\n    /// @param Receiver Distributer Ethereum Network Address\r\n    function recieveWholDis(address BatchID, address Receiver) public\r\n    {\r\n        require(Receiver == receiver, \"Only Receiver(Distributer) can call this function.\");\r\n        status = packageStatus(2);\r\n\r\n        Medicine(BatchID).recievedWholDis(Receiver);\r\n    }\r\n\r\n    /// @notice\r\n    /// @dev Get Medicine Batch Transaction status in between Wholesaler and Distributer\r\n    /// @return Transaction status\r\n    function getBatchIDStatus() public view returns(uint)\r\n    {\r\n        return uint(status);\r\n    }\r\n\r\n}\r\n",
  "sourcePath": "C:\\Users\\P. R. RAJAGOPAL\\Desktop\\BLockchain\\Blockchain_SupplyChain\\contracts\\MedicineWholDist.sol",
  "compiler": {
    "name": "solc",
    "version": "0.5.1+commit.c8a2cb62.Emscripten.clang"
  },
  "schemaVersion": "3.0.22",
  "updatedAt": "2020-06-25T06:58:06.886Z",
  "devdoc": {
    "details": "Sub Contract for Medicine Transaction between Wholesaler and Distributer",
    "methods": {
      "constructor": {
        "params": {
          "Receiver": "Distributer Ethereum Network Address"
        }
      },
      "getBatchIDStatus()": {
        "return": "Transaction status"
      },
      "pickWholDist(address,address)": {
        "params": {
          "Shipper": "Transporter Ethereum Network Address"
        }
      },
      "recieveWholDis(address,address)": {
        "params": {
          "Receiver": "Distributer Ethereum Network Address"
        }
      }
    }
  },
  "userdoc": {
    "methods": {}
  }
}