{
  "contractName": "Migrations",
  "abi": [
    {
      "constant": true,
      "inputs": [],
      "name": "last_completed_migration",
      "outputs": [
        {
          "name": "",
          "type": "uint256"
        }
      ],
      "payable": false,
      "stateMutability": "view",
      "type": "function"
    },
    {
      "constant": true,
      "inputs": [],
      "name": "owner",
      "outputs": [
        {
          "name": "",
          "type": "address"
        }
      ],
      "payable": false,
      "stateMutability": "view",
      "type": "function"
    },
    {
      "inputs": [],
      "payable": false,
      "stateMutability": "nonpayable",
      "type": "constructor"
    },
    {
      "constant": false,
      "inputs": [
        {
          "name": "completed",
          "type": "uint256"
        }
      ],
      "name": "setCompleted",
      "outputs": [],
      "payable": false,
      "stateMutability": "nonpayable",
      "type": "function"
    },
    {
      "constant": false,
      "inputs": [
        {
          "name": "new_address",
          "type": "address"
        }
      ],
      "name": "upgrade",
      "outputs": [],
      "payable": false,
      "stateMutability": "nonpayable",
      "type": "function"
    }
  ],
  "bytecode": "0x608060405234801561001057600080fd5b5060008054600160a060020a03191633179055610257806100326000396000f3fe60806040526004361061005b577c010000000000000000000000000000000000000000000000000000000060003504630900f0108114610060578063445df0ac146100a25780638da5cb5b146100c9578063fdacd57614610107575b600080fd5b34801561006c57600080fd5b506100a06004803603602081101561008357600080fd5b503573ffffffffffffffffffffffffffffffffffffffff16610131565b005b3480156100ae57600080fd5b506100b76101e4565b60408051918252519081900360200190f35b3480156100d557600080fd5b506100de6101ea565b6040805173ffffffffffffffffffffffffffffffffffffffff9092168252519081900360200190f35b34801561011357600080fd5b506100a06004803603602081101561012a57600080fd5b5035610206565b60005473ffffffffffffffffffffffffffffffffffffffff163314156101e15760008190508073ffffffffffffffffffffffffffffffffffffffff1663fdacd5766001546040518263ffffffff167c010000000000000000000000000000000000000000000000000000000002815260040180828152602001915050600060405180830381600087803b1580156101c757600080fd5b505af11580156101db573d6000803e3d6000fd5b50505050505b50565b60015481565b60005473ffffffffffffffffffffffffffffffffffffffff1681565b60005473ffffffffffffffffffffffffffffffffffffffff163314156101e15760015556fea165627a7a723058208aca4b3dbe1b0efe863504a6ad56e560f02a4aa3ea3adcdd2e0b0fc2bbe7ada50029",
  "source": "pragma solidity >=0.4.21 <0.6.0;\r\n\r\ncontract Migrations {\r\n  address public owner;\r\n  uint public last_completed_migration;\r\n\r\n  constructor() public {\r\n    owner = msg.sender;\r\n  }\r\n\r\n  modifier restricted() {\r\n    if (msg.sender == owner) _;\r\n  }\r\n\r\n  function setCompleted(uint completed) public restricted {\r\n    last_completed_migration = completed;\r\n  }\r\n\r\n  function upgrade(address new_address) public restricted {\r\n    Migrations upgraded = Migrations(new_address);\r\n    upgraded.setCompleted(last_completed_migration);\r\n  }\r\n}\r\n",
  "sourcePath": "C:/Users/P. R. RAJAGOPAL/Desktop/BLockchain/Blockchain_SupplyChain/contracts/Migrations.sol",
  "compiler": {
    "name": "solc",
    "version": "0.5.1+commit.c8a2cb62.Emscripten.clang"
  },
  "schemaVersion": "3.0.22",
  "updatedAt": "2020-06-25T06:25:16.698Z",
  "devdoc": {
    "methods": {}
  },
  "userdoc": {
    "methods": {}
  }
}