{
  "contractName": "RawMaterials",
  "abi": [
    {
      "inputs": [
        {
          "name": "Splr",
          "type": "address"
        },
        {
          "name": "Des",
          "type": "bytes32"
        },
        {
          "name": "LN",
          "type": "bytes32"
        },
        {
          "name": "Loc",
          "type": "bytes32"
        },
        {
          "name": "Quant",
          "type": "uint256"
        },
        {
          "name": "Shpr",
          "type": "address"
        },
        {
          "name": "Rcvr",
          "type": "address"
        }
      ],
      "payable": false,
      "stateMutability": "nonpayable",
      "type": "constructor"
    },
    {
      "anonymous": false,
      "inputs": [
        {
          "indexed": true,
          "name": "BatchID",
          "type": "address"
        },
        {
          "indexed": true,
          "name": "Shipper",
          "type": "address"
        },
        {
          "indexed": true,
          "name": "Manufacturer",
          "type": "address"
        },
        {
          "indexed": false,
          "name": "TransporterType",
          "type": "uint256"
        },
        {
          "indexed": false,
          "name": "Status",
          "type": "uint256"
        }
      ],
      "name": "TransportUpdate",
      "type": "event"
    },
    {
      "constant": true,
      "inputs": [],
      "name": "getSuppliedRawMatrials",
      "outputs": [
        {
          "name": "Des",
          "type": "bytes32"
        },
        {
          "name": "LN",
          "type": "bytes32"
        },
        {
          "name": "Loc",
          "type": "bytes32"
        },
        {
          "name": "Quant",
          "type": "uint256"
        },
        {
          "name": "Shpr",
          "type": "address"
        },
        {
          "name": "Rcvr",
          "type": "address"
        },
        {
          "name": "Splr",
          "type": "address"
        }
      ],
      "payable": false,
      "stateMutability": "view",
      "type": "function"
    },
    {
      "constant": true,
      "inputs": [],
      "name": "getRawMatrialsStatus",
      "outputs": [
        {
          "name": "",
          "type": "uint256"
        }
      ],
      "payable": false,
      "stateMutability": "view",
      "type": "function"
    },
    {
      "constant": false,
      "inputs": [
        {
          "name": "shpr",
          "type": "address"
        }
      ],
      "name": "pickPackage",
      "outputs": [],
      "payable": false,
      "stateMutability": "nonpayable",
      "type": "function"
    },
    {
      "constant": false,
      "inputs": [
        {
          "name": "manu",
          "type": "address"
        }
      ],
      "name": "receivedRawMaterials",
      "outputs": [],
      "payable": false,
      "stateMutability": "nonpayable",
      "type": "function"
    }
  ],
  "bytecode": "0x608060405234801561001057600080fd5b5060405160e0806105d9833981018060405260e081101561003057600080fd5b508051602082015160408301516060840151608085015160a086015160c09096015160008054600160a060020a0319908116600160a060020a0398891690811783556001805430908416179055600297909755600395909555600493909355600591909155600680548416968616969096179095556007805483169490951693909317909355600880549093161760a060020a60ff0219169091556104fe9081906100db90396000f3fe60806040526004361061005b577c010000000000000000000000000000000000000000000000000000000060003504633b205a7d8114610060578063638e9a3d14610087578063656cae14146100bc578063d02eee23146100ef575b600080fd5b34801561006c57600080fd5b5061007561014b565b60408051918252519081900360200190f35b34801561009357600080fd5b506100ba600480360360208110156100aa57600080fd5b5035600160a060020a031661017c565b005b3480156100c857600080fd5b506100ba600480360360208110156100df57600080fd5b5035600160a060020a031661030f565b3480156100fb57600080fd5b506101046104a3565b604080519788526020880196909652868601949094526060860192909252600160a060020a03908116608086015290811660a08501521660c0830152519081900360e00190f35b60085460009074010000000000000000000000000000000000000000900460ff16600281111561017757fe5b905090565b600654600160a060020a03828116911614610207576040805160e560020a62461bcd02815260206004820152602360248201527f4f6e6c7920536869707065722063616e2063616c6c20746869732066756e637460448201527f696f6e0000000000000000000000000000000000000000000000000000000000606482015290519081900360840190fd5b600060085474010000000000000000000000000000000000000000900460ff16600281111561023257fe5b14610287576040805160e560020a62461bcd02815260206004820152601a60248201527f5061636b616765206d75737420626520617420746865206c6162000000000000604482015290519081900360640190fd5b6008805474ff000000000000000000000000000000000000000019167401000000000000000000000000000000000000000017905560075460065460408051600180825260208201528151600160a060020a03948516949093169230927f9d475a197b36064e9055ac494f782d99b4d53fcbeb750a82ce4c24ef48bf30bb928290030190a450565b600754600160a060020a0382811691161461039a576040805160e560020a62461bcd02815260206004820152602860248201527f4f6e6c79204d616e7566616374757265722063616e2063616c6c20746869732060448201527f66756e6374696f6e000000000000000000000000000000000000000000000000606482015290519081900360840190fd5b600160085474010000000000000000000000000000000000000000900460ff1660028111156103c557fe5b1461041a576040805160e560020a62461bcd02815260206004820152601960248201527f50726f64756374206e6f742064656c6976657265642079657400000000000000604482015290519081900360640190fd5b6008805474ff00000000000000000000000000000000000000001916740200000000000000000000000000000000000000001790556007546006546040805160018152600260208201528151600160a060020a03948516949093169230927f9d475a197b36064e9055ac494f782d99b4d53fcbeb750a82ce4c24ef48bf30bb928290030190a450565b600254600354600454600554600654600754600854600160a060020a039283169291821691169091929394959656fea165627a7a723058206aa31cee3cb1156f8d4cf97db05444e14978eada21f85a6e95f6c0062dd53f800029",
  "source": "pragma solidity >=0.4.25 <0.6.0;\r\n\r\n/* Raw Materials Smart Contract **/\r\n/// @title Raw Materials\r\n/// @notice\r\n/// @dev Create new instance of RawMaterials package\r\ncontract RawMaterials {\r\n    /// @notice\r\n    address Admin;\r\n\r\n    enum packageStatus {atlab, picked, delivered}\r\n    event TransportUpdate(\r\n        address indexed BatchID,\r\n        address indexed Shipper,\r\n        address indexed Manufacturer,\r\n        uint TransporterType,\r\n        uint Status\r\n    );\r\n    /// @notice\r\n    address productid;\r\n    /// @notice\r\n    bytes32 description;\r\n    /// @notice\r\n    bytes32 lab_name;\r\n    /// @notice\r\n    bytes32 location;\r\n    /// @notice\r\n    uint quantity;\r\n    /// @notice\r\n    address shipper;\r\n    /// @notice\r\n    address manufacturer;\r\n    /// @notice\r\n    address supplier;\r\n    /// @notice\r\n    packageStatus status;\r\n    /// @notice\r\n    bytes32 packageReceiverDescription;\r\n\r\n    /// @notice\r\n    /// @dev Intiate New Package of Raw Matrials by Supplier\r\n    /// @param Splr Supplier Ethereum Network Address\r\n    /// @param Des Description of Raw Matrials\r\n    /// @param LN Lab Name\r\n    /// @param Loc Lab Location\r\n    /// @param Quant Number of units in a package\r\n    /// @param Shpr Transporter Ethereum Network Address\r\n    /// @param Rcvr Manufacturer Ethereum Network Address\r\n    constructor (\r\n        address Splr,\r\n        bytes32 Des,\r\n        bytes32 LN,\r\n        bytes32 Loc,\r\n        uint Quant,\r\n        address Shpr,\r\n        address Rcvr\r\n    )\r\n    public {\r\n      Admin = Splr;\r\n      productid = address(this);\r\n      description = Des;\r\n      lab_name = LN;\r\n      location = Loc;\r\n      quantity = Quant;\r\n      shipper = Shpr;\r\n      manufacturer = Rcvr;\r\n      supplier = Splr;\r\n      status = packageStatus(0);\r\n    }\r\n\r\n    /// @notice\r\n    /// @dev Get Raw Matrials Package Details\r\n    /// @return Package Details\r\n    function getSuppliedRawMatrials () public view returns(\r\n        bytes32 Des,\r\n        bytes32 LN,\r\n        bytes32 Loc,\r\n        uint Quant,\r\n        address Shpr,\r\n        address Rcvr,\r\n        address Splr\r\n    ) {\r\n        return(\r\n          description,\r\n          lab_name,\r\n          location,\r\n          quantity,\r\n          shipper,\r\n          manufacturer,\r\n          supplier\r\n        );\r\n    }\r\n\r\n    /// @notice\r\n    /// @dev Get Status of Transaction\r\n    /// @return Status of Delivery\r\n    function getRawMatrialsStatus() public view returns(uint)\r\n    {\r\n        return uint(status);\r\n    }\r\n\r\n    /// @notice\r\n    /// @dev Pick Package by Transporter from Lab\r\n    /// @param shpr Transporter Ethereum Network Address\r\n    function pickPackage(address shpr) public\r\n    {\r\n        require(shpr == shipper, \"Only Shipper can call this function\");\r\n        require(status == packageStatus(0), \"Package must be at the lab\");\r\n        status = packageStatus(1);\r\n        emit TransportUpdate(address(this),shipper,manufacturer,1,1);\r\n    }\r\n\r\n    /// @notice\r\n    /// @dev Received Raw Materials Status Update By Manufacturer\r\n    /// @param manu Manufacturer Ethereum Network Address\r\n    function receivedRawMaterials(address manu) public\r\n    {\r\n        require(manu == manufacturer, \"Only Manufacturer can call this function\");\r\n        require(status == packageStatus(1), \"Product not delivered yet\");\r\n        status = packageStatus(2);\r\n        emit TransportUpdate(address(this),shipper,manufacturer,1,2);\r\n    }\r\n}\r\n",
  "sourcePath": "C:\\Users\\P. R. RAJAGOPAL\\Desktop\\BLockchain\\Blockchain_SupplyChain\\contracts\\RawMatrials.sol",
  "compiler": {
    "name": "solc",
    "version": "0.5.1+commit.c8a2cb62.Emscripten.clang"
  },
  "schemaVersion": "3.0.22",
  "updatedAt": "2020-06-25T06:58:06.914Z",
  "devdoc": {
    "details": "Create new instance of RawMaterials package",
    "methods": {
      "constructor": {
        "params": {
          "Rcvr": "Manufacturer Ethereum Network Address"
        }
      },
      "getRawMatrialsStatus()": {
        "return": "Status of Delivery"
      },
      "getSuppliedRawMatrials()": {
        "return": "Package Details"
      },
      "pickPackage(address)": {
        "params": {
          "shpr": "Transporter Ethereum Network Address"
        }
      },
      "receivedRawMaterials(address)": {
        "params": {
          "manu": "Manufacturer Ethereum Network Address"
        }
      }
    }
  },
  "userdoc": {
    "methods": {}
  }
}