{
  "contractName": "SupplyChain",
  "abi": [
    {
      "constant": true,
      "inputs": [],
      "name": "Admin",
      "outputs": [
        {
          "name": "",
          "type": "address"
        }
      ],
      "payable": false,
      "stateMutability": "view",
      "type": "function"
    },
    {
      "inputs": [],
      "payable": false,
      "stateMutability": "nonpayable",
      "type": "constructor"
    },
    {
      "anonymous": false,
      "inputs": [
        {
          "indexed": true,
          "name": "EthAddress",
          "type": "address"
        },
        {
          "indexed": false,
          "name": "Name",
          "type": "bytes32"
        }
      ],
      "name": "UserRegister",
      "type": "event"
    },
    {
      "anonymous": false,
      "inputs": [
        {
          "indexed": true,
          "name": "EthAddress",
          "type": "address"
        },
        {
          "indexed": false,
          "name": "Name",
          "type": "bytes32"
        },
        {
          "indexed": false,
          "name": "Role",
          "type": "uint256"
        }
      ],
      "name": "UserRoleRevoked",
      "type": "event"
    },
    {
      "anonymous": false,
      "inputs": [
        {
          "indexed": true,
          "name": "EthAddress",
          "type": "address"
        },
        {
          "indexed": false,
          "name": "Name",
          "type": "bytes32"
        },
        {
          "indexed": false,
          "name": "Role",
          "type": "uint256"
        }
      ],
      "name": "UserRoleRessigned",
      "type": "event"
    },
    {
      "anonymous": false,
      "inputs": [
        {
          "indexed": true,
          "name": "ProductID",
          "type": "address"
        },
        {
          "indexed": false,
          "name": "Supplier",
          "type": "address"
        },
        {
          "indexed": true,
          "name": "Shipper",
          "type": "address"
        },
        {
          "indexed": true,
          "name": "Receiver",
          "type": "address"
        }
      ],
      "name": "RawSupplyInit",
      "type": "event"
    },
    {
      "anonymous": false,
      "inputs": [
        {
          "indexed": true,
          "name": "BatchId",
          "type": "address"
        },
        {
          "indexed": true,
          "name": "Manufacturer",
          "type": "address"
        },
        {
          "indexed": false,
          "name": "shipper",
          "type": "address"
        },
        {
          "indexed": true,
          "name": "Receiver",
          "type": "address"
        }
      ],
      "name": "MedicineNewBatch",
      "type": "event"
    },
    {
      "anonymous": false,
      "inputs": [
        {
          "indexed": false,
          "name": "BatchID",
          "type": "address"
        },
        {
          "indexed": true,
          "name": "Pharma",
          "type": "address"
        },
        {
          "indexed": false,
          "name": "status",
          "type": "uint256"
        }
      ],
      "name": "MedicineStatus",
      "type": "event"
    },
    {
      "constant": false,
      "inputs": [
        {
          "name": "EthAddress",
          "type": "address"
        },
        {
          "name": "Name",
          "type": "bytes32"
        },
        {
          "name": "Location",
          "type": "bytes32"
        },
        {
          "name": "Role",
          "type": "uint256"
        }
      ],
      "name": "registerUser",
      "outputs": [],
      "payable": false,
      "stateMutability": "nonpayable",
      "type": "function"
    },
    {
      "constant": false,
      "inputs": [
        {
          "name": "userAddress",
          "type": "address"
        }
      ],
      "name": "revokeRole",
      "outputs": [],
      "payable": false,
      "stateMutability": "nonpayable",
      "type": "function"
    },
    {
      "constant": false,
      "inputs": [
        {
          "name": "userAddress",
          "type": "address"
        },
        {
          "name": "Role",
          "type": "uint256"
        }
      ],
      "name": "reassignRole",
      "outputs": [],
      "payable": false,
      "stateMutability": "nonpayable",
      "type": "function"
    },
    {
      "constant": true,
      "inputs": [
        {
          "name": "User",
          "type": "address"
        }
      ],
      "name": "getUserInfo",
      "outputs": [
        {
          "name": "name",
          "type": "bytes32"
        },
        {
          "name": "location",
          "type": "bytes32"
        },
        {
          "name": "ethAddress",
          "type": "address"
        },
        {
          "name": "role",
          "type": "uint8"
        }
      ],
      "payable": false,
      "stateMutability": "view",
      "type": "function"
    },
    {
      "constant": true,
      "inputs": [],
      "name": "getUsersCount",
      "outputs": [
        {
          "name": "count",
          "type": "uint256"
        }
      ],
      "payable": false,
      "stateMutability": "view",
      "type": "function"
    },
    {
      "constant": true,
      "inputs": [
        {
          "name": "index",
          "type": "uint256"
        }
      ],
      "name": "getUserbyIndex",
      "outputs": [
        {
          "name": "name",
          "type": "bytes32"
        },
        {
          "name": "location",
          "type": "bytes32"
        },
        {
          "name": "ethAddress",
          "type": "address"
        },
        {
          "name": "role",
          "type": "uint8"
        }
      ],
      "payable": false,
      "stateMutability": "view",
      "type": "function"
    },
    {
      "constant": false,
      "inputs": [
        {
          "name": "Des",
          "type": "bytes32"
        },
        {
          "name": "LN",
          "type": "bytes32"
        },
        {
          "name": "Loc",
          "type": "bytes32"
        },
        {
          "name": "Quant",
          "type": "uint256"
        },
        {
          "name": "Shpr",
          "type": "address"
        },
        {
          "name": "Rcvr",
          "type": "address"
        }
      ],
      "name": "createRawPackage",
      "outputs": [],
      "payable": false,
      "stateMutability": "nonpayable",
      "type": "function"
    },
    {
      "constant": true,
      "inputs": [],
      "name": "getPackagesCountS",
      "outputs": [
        {
          "name": "count",
          "type": "uint256"
        }
      ],
      "payable": false,
      "stateMutability": "view",
      "type": "function"
    },
    {
      "constant": true,
      "inputs": [
        {
          "name": "index",
          "type": "uint256"
        }
      ],
      "name": "getPackageIdByIndexS",
      "outputs": [
        {
          "name": "packageID",
          "type": "address"
        }
      ],
      "payable": false,
      "stateMutability": "view",
      "type": "function"
    },
    {
      "constant": false,
      "inputs": [
        {
          "name": "pid",
          "type": "address"
        },
        {
          "name": "transportertype",
          "type": "uint256"
        },
        {
          "name": "cid",
          "type": "address"
        }
      ],
      "name": "loadConsingment",
      "outputs": [],
      "payable": false,
      "stateMutability": "nonpayable",
      "type": "function"
    },
    {
      "constant": false,
      "inputs": [
        {
          "name": "pid",
          "type": "address"
        }
      ],
      "name": "rawMaterialsReceived",
      "outputs": [],
      "payable": false,
      "stateMutability": "nonpayable",
      "type": "function"
    },
    {
      "constant": true,
      "inputs": [],
      "name": "getPackagesCountManuf",
      "outputs": [
        {
          "name": "count",
          "type": "uint256"
        }
      ],
      "payable": false,
      "stateMutability": "view",
      "type": "function"
    },
    {
      "constant": true,
      "inputs": [
        {
          "name": "index",
          "type": "uint256"
        }
      ],
      "name": "getPackageIDByIndexManuf",
      "outputs": [
        {
          "name": "BatchID",
          "type": "address"
        }
      ],
      "payable": false,
      "stateMutability": "view",
      "type": "function"
    },
    {
      "constant": false,
      "inputs": [
        {
          "name": "Des",
          "type": "bytes32"
        },
        {
          "name": "RM",
          "type": "bytes32"
        },
        {
          "name": "Quant",
          "type": "uint256"
        },
        {
          "name": "Shpr",
          "type": "address"
        },
        {
          "name": "Rcvr",
          "type": "address"
        },
        {
          "name": "RcvrType",
          "type": "uint256"
        }
      ],
      "name": "manufactureMedicine",
      "outputs": [],
      "payable": false,
      "stateMutability": "nonpayable",
      "type": "function"
    },
    {
      "constant": true,
      "inputs": [],
      "name": "getBatchesCountManuf",
      "outputs": [
        {
          "name": "count",
          "type": "uint256"
        }
      ],
      "payable": false,
      "stateMutability": "view",
      "type": "function"
    },
    {
      "constant": true,
      "inputs": [
        {
          "name": "index",
          "type": "uint256"
        }
      ],
      "name": "getBatchIdByIndexManuf",
      "outputs": [
        {
          "name": "packageID",
          "type": "address"
        }
      ],
      "payable": false,
      "stateMutability": "view",
      "type": "function"
    },
    {
      "constant": false,
      "inputs": [
        {
          "name": "batchid",
          "type": "address"
        },
        {
          "name": "cid",
          "type": "address"
        }
      ],
      "name": "medicineReceived",
      "outputs": [],
      "payable": false,
      "stateMutability": "nonpayable",
      "type": "function"
    },
    {
      "constant": false,
      "inputs": [
        {
          "name": "BatchID",
          "type": "address"
        },
        {
          "name": "Shipper",
          "type": "address"
        },
        {
          "name": "Receiver",
          "type": "address"
        }
      ],
      "name": "transferMedicineWholDist",
      "outputs": [],
      "payable": false,
      "stateMutability": "nonpayable",
      "type": "function"
    },
    {
      "constant": true,
      "inputs": [],
      "name": "getBatchesCountWD",
      "outputs": [
        {
          "name": "count",
          "type": "uint256"
        }
      ],
      "payable": false,
      "stateMutability": "view",
      "type": "function"
    },
    {
      "constant": true,
      "inputs": [
        {
          "name": "index",
          "type": "uint256"
        }
      ],
      "name": "getBatchIdByIndexWD",
      "outputs": [
        {
          "name": "packageID",
          "type": "address"
        }
      ],
      "payable": false,
      "stateMutability": "view",
      "type": "function"
    },
    {
      "constant": true,
      "inputs": [
        {
          "name": "BatchID",
          "type": "address"
        }
      ],
      "name": "getSubContractWholDist",
      "outputs": [
        {
          "name": "SubContractWD",
          "type": "address"
        }
      ],
      "payable": false,
      "stateMutability": "view",
      "type": "function"
    },
    {
      "constant": false,
      "inputs": [
        {
          "name": "BatchID",
          "type": "address"
        },
        {
          "name": "Shipper",
          "type": "address"
        },
        {
          "name": "Receiver",
          "type": "address"
        }
      ],
      "name": "transferMedicineDtoP",
      "outputs": [],
      "payable": false,
      "stateMutability": "nonpayable",
      "type": "function"
    },
    {
      "constant": true,
      "inputs": [],
      "name": "getBatchesCountDistPhar",
      "outputs": [
        {
          "name": "count",
          "type": "uint256"
        }
      ],
      "payable": false,
      "stateMutability": "view",
      "type": "function"
    },
    {
      "constant": true,
      "inputs": [
        {
          "name": "index",
          "type": "uint256"
        }
      ],
      "name": "getBatchIdByIndexDistPhar",
      "outputs": [
        {
          "name": "packageID",
          "type": "address"
        }
      ],
      "payable": false,
      "stateMutability": "view",
      "type": "function"
    },
    {
      "constant": true,
      "inputs": [
        {
          "name": "BatchID",
          "type": "address"
        }
      ],
      "name": "getSubContractDP",
      "outputs": [
        {
          "name": "SubContractDP",
          "type": "address"
        }
      ],
      "payable": false,
      "stateMutability": "view",
      "type": "function"
    },
    {
      "constant": false,
      "inputs": [
        {
          "name": "batchid",
          "type": "address"
        },
        {
          "name": "cid",
          "type": "address"
        }
      ],
      "name": "medicineRecievedAtPharmacy",
      "outputs": [],
      "payable": false,
      "stateMutability": "nonpayable",
      "type": "function"
    },
    {
      "constant": false,
      "inputs": [
        {
          "name": "BatchID",
          "type": "address"
        },
        {
          "name": "Status",
          "type": "uint256"
        }
      ],
      "name": "updateMedStatus",
      "outputs": [],
      "payable": false,
      "stateMutability": "nonpayable",
      "type": "function"
    },
    {
      "constant": true,
      "inputs": [
        {
          "name": "BatchID",
          "type": "address"
        }
      ],
      "name": "medInfo",
      "outputs": [
        {
          "name": "Status",
          "type": "uint256"
        }
      ],
      "payable": false,
      "stateMutability": "view",
      "type": "function"
    },
    {
      "constant": true,
      "inputs": [],
      "name": "getBatchesCountPhar",
      "outputs": [
        {
          "name": "count",
          "type": "uint256"
        }
      ],
      "payable": false,
      "stateMutability": "view",
      "type": "function"
    },
    {
      "constant": true,
      "inputs": [
        {
          "name": "index",
          "type": "uint256"
        }
      ],
      "name": "getBatchIdByIndexPhar",
      "outputs": [
        {
          "name": "BatchID",
          "type": "address"
        }
      ],
      "payable": false,
      "stateMutability": "view",
      "type": "function"
    }
  ],
  "bytecode": "0x608060405234801561001057600080fd5b5060008054600160a060020a03191633179055614623806100326000396000f3fe6080604052600436106200018b5760e060020a60003504630d7bfd5e8114620001905780630e3d781714620001ba578063108329f8146200020d57806317404e0e14620002875780631b9e0cf514620002c65780632becfd0414620002de5780632c0ed3d014620002f65780635e33cea414620003245780636386c1c7146200035257806373f08eb314620003895780637c7d91e114620003d057806380e52e3f14620003fe5780638692f32014620004355780638988a3e41462000474578063923f645a14620004b357806393438cb214620004fc5780639503f36414620005335780639af035a3146200054b5780639f696b351462000579578063a4a1e2631462000591578063a93c7abb14620005a9578063aacc7f7b14620005e6578063b513477b146200061d578063b6c022f51462000635578063bf8ee84b146200066c578063d40da96714620006b5578063f230d3c1146200070c578063fa9a09f61462000765578063fbe988ed14620007ae578063fe90ad6a14620007dc578063ff1b636d146200080a575b600080fd5b3480156200019d57600080fd5b50620001a862000822565b60408051918252519081900360200190f35b348015620001c757600080fd5b50620001f160048036036020811015620001e057600080fd5b5035600160a060020a0316620008ce565b60408051600160a060020a039092168252519081900360200190f35b3480156200021a57600080fd5b506200023b600480360360208110156200023357600080fd5b5035620008ec565b6040518085815260200184815260200183600160a060020a0316600160a060020a031681526020018260078111156200027057fe5b60ff16815260200194505050505060405180910390f35b3480156200029457600080fd5b50620002c460048036036040811015620002ad57600080fd5b50600160a060020a03813516906020013562000930565b005b348015620002d357600080fd5b50620001a862000b70565b348015620002eb57600080fd5b50620001a862000c2d565b3480156200030357600080fd5b50620001f1600480360360208110156200031c57600080fd5b503562000ce9565b3480156200033157600080fd5b50620001f1600480360360208110156200034a57600080fd5b503562000def565b3480156200035f57600080fd5b506200023b600480360360208110156200037857600080fd5b5035600160a060020a031662000eb3565b3480156200039657600080fd5b50620002c460048036036060811015620003af57600080fd5b50600160a060020a0381358116916020810135916040909101351662000eef565b348015620003dd57600080fd5b50620001f160048036036020811015620003f657600080fd5b5035620011ed565b3480156200040b57600080fd5b50620002c4600480360360208110156200042457600080fd5b5035600160a060020a0316620012a1565b3480156200044257600080fd5b50620002c4600480360360408110156200045b57600080fd5b50600160a060020a038135811691602001351662001475565b3480156200048157600080fd5b50620002c4600480360360408110156200049a57600080fd5b50600160a060020a038135811691602001351662001619565b348015620004c057600080fd5b50620002c460048036036080811015620004d957600080fd5b50600160a060020a03813516906020810135906040810135906060013562001922565b3480156200050957600080fd5b50620001a8600480360360208110156200052257600080fd5b5035600160a060020a031662001b4e565b3480156200054057600080fd5b50620001a862001b7c565b3480156200055857600080fd5b50620001f1600480360360208110156200057157600080fd5b503562001c5f565b3480156200058657600080fd5b50620001a862001d24565b3480156200059e57600080fd5b50620001a862001de1565b348015620005b657600080fd5b50620002c460048036036040811015620005cf57600080fd5b50600160a060020a03813516906020013562001de7565b348015620005f357600080fd5b50620002c4600480360360208110156200060c57600080fd5b5035600160a060020a031662001fc9565b3480156200062a57600080fd5b50620001a862002119565b3480156200064257600080fd5b50620001f1600480360360208110156200065b57600080fd5b5035600160a060020a0316620021d6565b3480156200067957600080fd5b50620002c4600480360360608110156200069257600080fd5b50600160a060020a038135811691602081013582169160409091013516620021f4565b348015620006c257600080fd5b50620002c4600480360360c0811015620006db57600080fd5b50803590602081013590604081013590606081013590600160a060020a03608082013581169160a001351662002407565b3480156200071957600080fd5b50620002c4600480360360c08110156200073257600080fd5b50803590602081013590604081013590600160a060020a03606082013581169160808101359091169060a00135620025a4565b3480156200077257600080fd5b50620002c4600480360360608110156200078b57600080fd5b50600160a060020a03813581169160208101358216916040909101351662002789565b348015620007bb57600080fd5b50620001f160048036036020811015620007d457600080fd5b503562002999565b348015620007e957600080fd5b50620001f1600480360360208110156200080257600080fd5b503562002a5e565b3480156200081757600080fd5b50620001f162002b23565b600060033360009081526001602052604090206002015460a060020a900460ff1660078111156200084f57fe5b14620008ba576040805160e560020a62461bcd02815260206004820152602860248201527f4f6e6c79204d616e7566616374757265722063616e2063616c6c2074686973206044820152600080516020620045d8833981519152606482015290519081900360840190fd5b503360009081526004602052604090205490565b600160a060020a039081166000908152600860205260409020541690565b600080600080620009216002868154811015156200090657fe5b600091825260209091200154600160a060020a031662000eb3565b93509350935093509193509193565b60063360009081526001602052604090206002015460a060020a900460ff1660078111156200095b57fe5b148015620009ed575081600160a060020a0316634577bc196040518163ffffffff1660e060020a02815260040160606040518083038186803b158015620009a157600080fd5b505afa158015620009b6573d6000803e3d6000fd5b505050506040513d601f19601f820116820180604052506060811015620009dc57600080fd5b5060400151600160a060020a031633145b151562000a6a576040805160e560020a62461bcd02815260206004820152602481018290527f4f6e6c7920506861726d616379206f722043757272656e742041646d696e206f60448201527f66207061636b6167652063616e2063616c6c20746869732066756e6374696f6e606482015290519081900360840190fd5b6001600160a060020a0383166000908152600d602052604090205460ff16600481111562000a9457fe5b1462000aea576040805160e560020a62461bcd02815260206004820181905260248201527f4d65646963696e65206d7573742062652061742074686520506861726d616379604482015290519081900360640190fd5b80600481111562000af757fe5b600160a060020a0383166000908152600d60205260409020805460ff1916600183600481111562000b2457fe5b021790555060408051600160a060020a038416815260208101839052815133927f778762ccb04f5a8838ed8914b13eb6f118224696959cbfa0cfea54133f76a7d5928290030190a25050565b600060033360009081526001602052604090206002015460a060020a900460ff16600781111562000b9d57fe5b1462000c19576040805160e560020a62461bcd02815260206004820152602960248201527f4f6e6c79204d616e7566616374757265722043616e2063616c6c20746869732060448201527f66756e6374696f6e2e0000000000000000000000000000000000000000000000606482015290519081900360840190fd5b503360009081526005602052604090205490565b600060013360009081526001602052604090206002015460a060020a900460ff16600781111562000c5a57fe5b1462000cd5576040805160e560020a62461bcd028152602060048201526024808201527f4f6e6c7920537570706c6965722043616e2063616c6c20746869732066756e6360448201527f74696f6e00000000000000000000000000000000000000000000000000000000606482015290519081900360840190fd5b503360009081526003602052604090205490565b600060063360009081526001602052604090206002015460a060020a900460ff16600781111562000d1657fe5b1462000db8576040805160e560020a62461bcd02815260206004820152604260248201527f4f6e6c792057686f6c6573616c6572206f722063757272656e742041646d696e60448201527f206f66207061636b6167652063616e2063616c6c20746869732066756e63746960648201527f6f6e000000000000000000000000000000000000000000000000000000000000608482015290519081900360a40190fd5b336000908152600c6020526040902080548390811062000dd457fe5b600091825260209091200154600160a060020a031692915050565b600060013360009081526001602052604090206002015460a060020a900460ff16600781111562000e1c57fe5b1462000e97576040805160e560020a62461bcd028152602060048201526024808201527f4f6e6c7920537570706c6965722043616e2063616c6c20746869732066756e6360448201527f74696f6e00000000000000000000000000000000000000000000000000000000606482015290519081900360840190fd5b33600090815260036020526040902080548390811062000dd457fe5b600160a060020a0390811660009081526001602081905260409091208054918101546002909101549193909282169160a060020a900460ff1690565b60023360009081526001602052604090206002015460a060020a900460ff16600781111562000f1a57fe5b1462000f96576040805160e560020a62461bcd02815260206004820152602760248201527f4f6e6c79205472616e73706f727465722063616e2063616c6c2074686973206660448201527f756e6374696f6e00000000000000000000000000000000000000000000000000606482015290519081900360840190fd5b6000821162000fef576040805160e560020a62461bcd02815260206004820181905260248201527f5472616e73706f727465722054797065206d75737420626520636f7272656374604482015290519081900360640190fd5b81600114156200107957604080517f638e9a3d0000000000000000000000000000000000000000000000000000000081523360048201529051600160a060020a0385169163638e9a3d91602480830192600092919082900301818387803b1580156200105a57600080fd5b505af11580156200106f573d6000803e3d6000fd5b50505050620011e8565b8160021415620010e457604080517f638e9a3d0000000000000000000000000000000000000000000000000000000081523360048201529051600160a060020a0385169163638e9a3d91602480830192600092919082900301818387803b1580156200105a57600080fd5b81600314156200115957604080517fd8d15ce7000000000000000000000000000000000000000000000000000000008152600160a060020a03858116600483015233602483015291519183169163d8d15ce79160448082019260009290919082900301818387803b1580156200105a57600080fd5b8160041415620011e857604080517f175a981a000000000000000000000000000000000000000000000000000000008152600160a060020a03858116600483015233602483015291519183169163175a981a9160448082019260009290919082900301818387803b158015620011ce57600080fd5b505af1158015620011e3573d6000803e3d6000fd5b505050505b505050565b600060033360009081526001602052604090206002015460a060020a900460ff1660078111156200121a57fe5b1462001285576040805160e560020a62461bcd02815260206004820152602860248201527f4f6e6c79204d616e7566616374757265722063616e2063616c6c2074686973206044820152600080516020620045d8833981519152606482015290519081900360840190fd5b33600090815260046020526040902080548390811062000dd457fe5b600054600160a060020a031633146200132a576040805160e560020a62461bcd02815260206004820152602260248201527f4f6e6c792041646d696e2063616e2063616c6c20746869732066756e6374696f60448201527f6e2e000000000000000000000000000000000000000000000000000000000000606482015290519081900360840190fd5b6000600160a060020a03821660009081526001602052604090206002015460a060020a900460ff1660078111156200135e57fe5b1415620013b5576040805160e560020a62461bcd02815260206004820152601360248201527f55736572206e6f74207265676973746572656400000000000000000000000000604482015290519081900360640190fd5b600160a060020a038116600081815260016020526040902080546002909101547fb5f04dfc1ccfefb366c4dc7a23670362462e0a415afb89d8cba1fb657e264c96919060a060020a900460ff1660078111156200140e57fe5b6040805192835260208301919091528051918290030190a2600160a060020a03166000908152600160205260409020600201805474ff0000000000000000000000000000000000000000191674070000000000000000000000000000000000000000179055565b60063360009081526001602052604090206002015460a060020a900460ff166007811115620014a057fe5b146200151c576040805160e560020a62461bcd02815260206004820152602560248201527f4f6e6c7920506861726d6163792043616e2063616c6c20746869732066756e6360448201527f74696f6e2e000000000000000000000000000000000000000000000000000000606482015290519081900360840190fd5b604080517fe9842fa3000000000000000000000000000000000000000000000000000000008152600160a060020a03848116600483015233602483015291519183169163e9842fa39160448082019260009290919082900301818387803b1580156200158757600080fd5b505af11580156200159c573d6000803e3d6000fd5b5050336000908152600c60209081526040822080546001808201835591845291909220018054600160a060020a031916600160a060020a0387161790559150620015e39050565b600160a060020a0383166000908152600d60205260409020805460ff191660018360048111156200161057fe5b02179055505050565b60043360009081526001602052604090206002015460a060020a900460ff1660078111156200164457fe5b148062001679575060053360009081526001602052604090206002015460a060020a900460ff1660078111156200167757fe5b145b1515620016f6576040805160e560020a62461bcd02815260206004820152603660248201527f4f6e6c792057686f6c6573616c657220616e642044697374726962757465722060448201527f63616e2063616c6c20746869732066756e6374696f6e00000000000000000000606482015290519081900360840190fd5b604080517f52b999680000000000000000000000000000000000000000000000000000000081523360048201529051600091600160a060020a038516916352b999689160248082019260209290919082900301818787803b1580156200175b57600080fd5b505af115801562001770573d6000803e3d6000fd5b505050506040513d60208110156200178757600080fd5b505190506001811415620017d357336000908152600660209081526040822080546001810182559083529120018054600160a060020a031916600160a060020a038516179055620011e8565b8060021415620011e85733600090815260066020908152604080832080546001810182559084529183209091018054600160a060020a031916600160a060020a03871690811790915581517f4577bc1900000000000000000000000000000000000000000000000000000000815291519091634577bc19916004808301926060929190829003018186803b1580156200186b57600080fd5b505afa15801562001880573d6000803e3d6000fd5b505050506040513d601f19601f820116820180604052506060811015620018a657600080fd5b5051600160a060020a031614620011e857604080517fc442d4fa000000000000000000000000000000000000000000000000000000008152600160a060020a03858116600483015233602483015291519184169163c442d4fa9160448082019260009290919082900301818387803b158015620011ce57600080fd5b600054600160a060020a03163314620019ab576040805160e560020a62461bcd02815260206004820152602260248201527f4f6e6c792041646d696e2063616e2063616c6c20746869732066756e6374696f60448201527f6e2e000000000000000000000000000000000000000000000000000000000000606482015290519081900360840190fd5b6000600160a060020a03851660009081526001602052604090206002015460a060020a900460ff166007811115620019df57fe5b1462001a35576040805160e560020a62461bcd02815260206004820152601760248201527f5573657220416c72656164792072656769737465726564000000000000000000604482015290519081900360640190fd5b600160a060020a03841660008181526001602081905260409091208581559081018490556002018054600160a060020a031916909117905580600781111562001a7a57fe5b600160a060020a0385166000908152600160205260409020600201805474ff0000000000000000000000000000000000000000191660a060020a83600781111562001ac157fe5b0217905550600280546001810182556000919091527f405787fa12a823e0f2b7631cc41b3ba8828b3321ca811111fa75cd3aa3bb5ace018054600160a060020a038616600160a060020a031990911681179091556040805185815290517f33a7170f028b1e4f5ba321064a00ed820856a920c7f9c6636fbcf385427b1b0f9181900360200190a250505050565b600160a060020a0381166000908152600d602052604081205460ff16600481111562001b7657fe5b92915050565b600060063360009081526001602052604090206002015460a060020a900460ff16600781111562001ba957fe5b1462001c4b576040805160e560020a62461bcd02815260206004820152604260248201527f4f6e6c792057686f6c6573616c6572206f722063757272656e742041646d696e60448201527f206f66207061636b6167652063616e2063616c6c20746869732066756e63746960648201527f6f6e000000000000000000000000000000000000000000000000000000000000608482015290519081900360a40190fd5b50336000908152600c602052604090205490565b600060043360009081526001602052604090206002015460a060020a900460ff16600781111562001c8c57fe5b1462001d08576040805160e560020a62461bcd02815260206004820152602760248201527f4f6e6c792057686f6c6573616c65722043616e2063616c6c207468697320667560448201527f6e6374696f6e2e00000000000000000000000000000000000000000000000000606482015290519081900360840190fd5b33600090815260076020526040902080548390811062000dd457fe5b600060043360009081526001602052604090206002015460a060020a900460ff16600781111562001d5157fe5b1462001dcd576040805160e560020a62461bcd02815260206004820152602760248201527f4f6e6c792057686f6c6573616c65722043616e2063616c6c207468697320667560448201527f6e6374696f6e2e00000000000000000000000000000000000000000000000000606482015290519081900360840190fd5b503360009081526007602052604090205490565b60025490565b600054600160a060020a0316331462001e70576040805160e560020a62461bcd02815260206004820152602260248201527f4f6e6c792041646d696e2063616e2063616c6c20746869732066756e6374696f60448201527f6e2e000000000000000000000000000000000000000000000000000000000000606482015290519081900360840190fd5b6000600160a060020a03831660009081526001602052604090206002015460a060020a900460ff16600781111562001ea457fe5b141562001efb576040805160e560020a62461bcd02815260206004820152601360248201527f55736572206e6f74207265676973746572656400000000000000000000000000604482015290519081900360640190fd5b80600781111562001f0857fe5b600160a060020a0383166000908152600160205260409020600201805474ff0000000000000000000000000000000000000000191660a060020a83600781111562001f4f57fe5b0217905550600160a060020a038216600081815260016020526040902080546002909101547f297bf4539241e832a1658c08ccf923a4036420a01d39215285ad2adb8e97f917919060a060020a900460ff16600781111562001fad57fe5b6040805192835260208301919091528051918290030190a25050565b60033360009081526001602052604090206002015460a060020a900460ff16600781111562001ff457fe5b146200205f576040805160e560020a62461bcd02815260206004820152602860248201527f4f6e6c79206d616e7566616374757265722063616e2063616c6c2074686973206044820152600080516020620045d8833981519152606482015290519081900360840190fd5b604080517f656cae140000000000000000000000000000000000000000000000000000000081523360048201529051600160a060020a0383169163656cae1491602480830192600092919082900301818387803b158015620020c057600080fd5b505af1158015620020d5573d6000803e3d6000fd5b5050336000908152600460209081526040822080546001810182559083529120018054600160a060020a031916600160a060020a0394909416939093179092555050565b600060053360009081526001602052604090206002015460a060020a900460ff1660078111156200214657fe5b14620021c2576040805160e560020a62461bcd02815260206004820152602860248201527f4f6e6c792044697374726962757465722043616e2063616c6c2074686973206660448201527f756e6374696f6e2e000000000000000000000000000000000000000000000000606482015290519081900360840190fd5b50336000908152600a602052604090205490565b600160a060020a039081166000908152600b60205260409020541690565b60053360009081526001602052604090206002015460a060020a900460ff1660078111156200221f57fe5b148015620022b1575082600160a060020a0316634577bc196040518163ffffffff1660e060020a02815260040160606040518083038186803b1580156200226557600080fd5b505afa1580156200227a573d6000803e3d6000fd5b505050506040513d601f19601f820116820180604052506060811015620022a057600080fd5b5060200151600160a060020a031633145b151562002354576040805160e560020a62461bcd02815260206004820152604360248201527f4f6e6c79204469737472696275746572206f722043757272656e742041646d6960448201527f6e206f66207061636b6167652063616e2063616c6c20746869732066756e637460648201527f696f6e0000000000000000000000000000000000000000000000000000000000608482015290519081900360a40190fd5b6000833384846200236462002b32565b600160a060020a039485168152928416602084015290831660408084019190915292166060820152905190819003608001906000f080158015620023ac573d6000803e3d6000fd5b50336000908152600a602090815260408083208054600181018255908452828420018054600160a060020a03958616600160a060020a03199182168117909255989094168352600b9091529020805490951617909355505050565b60013360009081526001602052604090206002015460a060020a900460ff1660078111156200243257fe5b14620024ae576040805160e560020a62461bcd02815260206004820152602560248201527f4f6e6c7920537570706c6965722043616e2063616c6c20746869732066756e6360448201527f74696f6e20000000000000000000000000000000000000000000000000000000606482015290519081900360840190fd5b600033878787878787620024c162002b43565b600160a060020a039788168152602081019690965260408087019590955260608601939093526080850191909152841660a084015290921660c082015290519081900360e001906000f0801580156200251e573d6000803e3d6000fd5b503360008181526003602090815260408083208054600181018255908452928290209092018054600160a060020a031916600160a060020a038681169182179092558351948552925194955086811694908816937f9dbe7d9fdd28b9b1c2ffe79a40f7beff124537ed0d7a47555d009e0271fc613392908290030190a450505050505050565b60033360009081526001602052604090206002015460a060020a900460ff166007811115620025cf57fe5b146200263a576040805160e560020a62461bcd02815260206004820152602860248201527f4f6e6c79204d616e7566616374757265722063616e2063616c6c2074686973206044820152600080516020620045d8833981519152606482015290519081900360840190fd5b80151562002692576040805160e560020a62461bcd02815260206004820152601d60248201527f52656365697665722054797065206d75737420626520636f7272656374000000604482015290519081900360640190fd5b600033878787878787620026a562002b54565b600160a060020a03978816815260208101969096526040808701959095526060860193909352908516608085015290931660a083015260c082019290925290519081900360e001906000f08015801562002703573d6000803e3d6000fd5b503360008181526005602090815260408083208054600181018255908452928290209092018054600160a060020a031916600160a060020a0386811691821790925583518a8316815293519596509088169490927fa464e8d0d73596ec44ad2f56ca60a8fc4ef75e1b7b0b3f46fe1e073fb5da11b592908290030190a450505050505050565b60043360009081526001602052604090206002015460a060020a900460ff166007811115620027b457fe5b14801562002843575082600160a060020a0316634577bc196040518163ffffffff1660e060020a02815260040160606040518083038186803b158015620027fa57600080fd5b505afa1580156200280f573d6000803e3d6000fd5b505050506040513d601f19601f8201168201806040525060608110156200283557600080fd5b5051600160a060020a031633145b1515620028e6576040805160e560020a62461bcd02815260206004820152604260248201527f4f6e6c792057686f6c6573616c6572206f722063757272656e742041646d696e60448201527f206f66207061636b6167652063616e2063616c6c20746869732066756e63746960648201527f6f6e000000000000000000000000000000000000000000000000000000000000608482015290519081900360a40190fd5b600083338484620028f662002b65565b600160a060020a039485168152928416602084015290831660408084019190915292166060820152905190819003608001906000f0801580156200293e573d6000803e3d6000fd5b503360009081526007602090815260408083208054600181018255908452828420018054600160a060020a03958616600160a060020a0319918216811790925598909416835260089091529020805490951617909355505050565b600060033360009081526001602052604090206002015460a060020a900460ff166007811115620029c657fe5b1462002a42576040805160e560020a62461bcd02815260206004820152602960248201527f4f6e6c79204d616e7566616374757265722043616e2063616c6c20746869732060448201527f66756e6374696f6e2e0000000000000000000000000000000000000000000000606482015290519081900360840190fd5b33600090815260056020526040902080548390811062000dd457fe5b600060053360009081526001602052604090206002015460a060020a900460ff16600781111562002a8b57fe5b1462002b07576040805160e560020a62461bcd02815260206004820152602860248201527f4f6e6c792044697374726962757465722043616e2063616c6c2074686973206660448201527f756e6374696f6e2e000000000000000000000000000000000000000000000000606482015290519081900360840190fd5b336000908152600a6020526040902080548390811062000dd457fe5b600054600160a060020a031681565b6040516104ba8062002b7783390190565b6040516105d9806200303183390190565b604051610b14806200360a83390190565b6040516104ba806200411e8339019056fe608060405234801561001057600080fd5b506040516080806104ba8339810180604052608081101561003057600080fd5b5080516020820151604083015160609093015160008054600160a060020a0319908116600160a060020a03948516908117835560018054831696861696909617909555600280548216909517909455600380548516958416959095179094556004805490931691161760a060020a60ff02191690556104059081906100b590396000f3fe608060405260043610610050577c01000000000000000000000000000000000000000000000000000000006000350463175a981a8114610055578063d2f3fcc714610092578063e9842fa3146100b9575b600080fd5b34801561006157600080fd5b506100906004803603604081101561007857600080fd5b50600160a060020a03813581169160200135166100f4565b005b34801561009e57600080fd5b506100a7610256565b60408051918252519081900360200190f35b3480156100c557600080fd5b50610090600480360360408110156100dc57600080fd5b50600160a060020a0381358116916020013516610287565b600354600160a060020a0382811691161461019557604080517f08c379a0000000000000000000000000000000000000000000000000000000008152602060048201526024808201527f4f6e6c7920536869707065722063616e2063616c6c20746869732066756e637460448201527f696f6e2e00000000000000000000000000000000000000000000000000000000606482015290519081900360840190fd5b6004805474ff000000000000000000000000000000000000000019167401000000000000000000000000000000000000000017808255600254604080517fed40abbf000000000000000000000000000000000000000000000000000000008152600160a060020a03938416948101949094529082166024840152519084169163ed40abbf91604480830192600092919082900301818387803b15801561023a57600080fd5b505af115801561024e573d6000803e3d6000fd5b505050505050565b60045460009074010000000000000000000000000000000000000000900460ff16600281111561028257fe5b905090565b600454600160a060020a0382811691161461032957604080517f08c379a000000000000000000000000000000000000000000000000000000000815260206004820152602560248201527f4f6e6c7920506861726d6163792063616e2063616c6c20746869732066756e6360448201527f74696f6e2e000000000000000000000000000000000000000000000000000000606482015290519081900360840190fd5b600480546002919074ff000000000000000000000000000000000000000019167401000000000000000000000000000000000000000083021790555081600160a060020a0316634dd3ca7b826040518263ffffffff167c01000000000000000000000000000000000000000000000000000000000281526004018082600160a060020a0316600160a060020a03168152602001915050600060405180830381600087803b15801561023a57600080fdfea165627a7a723058204c97b97705c7610bc390be9c7afa1fe8d52b4d6fdc778a978a8578ce5fe5b3f40029608060405234801561001057600080fd5b5060405160e0806105d9833981018060405260e081101561003057600080fd5b508051602082015160408301516060840151608085015160a086015160c09096015160008054600160a060020a0319908116600160a060020a0398891690811783556001805430908416179055600297909755600395909555600493909355600591909155600680548416968616969096179095556007805483169490951693909317909355600880549093161760a060020a60ff0219169091556104fe9081906100db90396000f3fe60806040526004361061005b577c010000000000000000000000000000000000000000000000000000000060003504633b205a7d8114610060578063638e9a3d14610087578063656cae14146100bc578063d02eee23146100ef575b600080fd5b34801561006c57600080fd5b5061007561014b565b60408051918252519081900360200190f35b34801561009357600080fd5b506100ba600480360360208110156100aa57600080fd5b5035600160a060020a031661017c565b005b3480156100c857600080fd5b506100ba600480360360208110156100df57600080fd5b5035600160a060020a031661030f565b3480156100fb57600080fd5b506101046104a3565b604080519788526020880196909652868601949094526060860192909252600160a060020a03908116608086015290811660a08501521660c0830152519081900360e00190f35b60085460009074010000000000000000000000000000000000000000900460ff16600281111561017757fe5b905090565b600654600160a060020a03828116911614610207576040805160e560020a62461bcd02815260206004820152602360248201527f4f6e6c7920536869707065722063616e2063616c6c20746869732066756e637460448201527f696f6e0000000000000000000000000000000000000000000000000000000000606482015290519081900360840190fd5b600060085474010000000000000000000000000000000000000000900460ff16600281111561023257fe5b14610287576040805160e560020a62461bcd02815260206004820152601a60248201527f5061636b616765206d75737420626520617420746865206c6162000000000000604482015290519081900360640190fd5b6008805474ff000000000000000000000000000000000000000019167401000000000000000000000000000000000000000017905560075460065460408051600180825260208201528151600160a060020a03948516949093169230927f9d475a197b36064e9055ac494f782d99b4d53fcbeb750a82ce4c24ef48bf30bb928290030190a450565b600754600160a060020a0382811691161461039a576040805160e560020a62461bcd02815260206004820152602860248201527f4f6e6c79204d616e7566616374757265722063616e2063616c6c20746869732060448201527f66756e6374696f6e000000000000000000000000000000000000000000000000606482015290519081900360840190fd5b600160085474010000000000000000000000000000000000000000900460ff1660028111156103c557fe5b1461041a576040805160e560020a62461bcd02815260206004820152601960248201527f50726f64756374206e6f742064656c6976657265642079657400000000000000604482015290519081900360640190fd5b6008805474ff00000000000000000000000000000000000000001916740200000000000000000000000000000000000000001790556007546006546040805160018152600260208201528151600160a060020a03948516949093169230927f9d475a197b36064e9055ac494f782d99b4d53fcbeb750a82ce4c24ef48bf30bb928290030190a450565b600254600354600454600554600654600754600854600160a060020a039283169291821691169091929394959656fea165627a7a723058206aa31cee3cb1156f8d4cf97db05444e14978eada21f85a6e95f6c0062dd53f800029608060405234801561001057600080fd5b5060405160e080610b14833981018060405260e081101561003057600080fd5b508051602082015160408301516060840151608085015160a086015160c09096015160008054600160a060020a0319908116600160a060020a03808a1691821790935560058054831690911790556001878155600287905560038690556004805490921692851692909217905595969495939492939192918114156100cf5760068054600160a060020a031916600160a060020a0384161790556100f4565b80600214156100f45760078054600160a060020a031916600160a060020a0384161790555b50505050505050610a0a8061010a6000396000f3fe608060405260043610610092577c010000000000000000000000000000000000000000000000000000000060003504630cef5cb681146100975780634577bc19146100d45780634dd3ca7b1461012157806352b999681461015457806358dedf9f14610199578063638e9a3d146101cc578063d2f3fcc7146101ff578063e002c8a514610214578063ed40abbf14610265575b600080fd5b3480156100a357600080fd5b506100d2600480360360408110156100ba57600080fd5b50600160a060020a03813581169160200135166102a0565b005b3480156100e057600080fd5b506100e9610358565b6040518082606080838360005b8381101561010e5781810151838201526020016100f6565b5050505090500191505060405180910390f35b34801561012d57600080fd5b506100d26004803603602081101561014457600080fd5b5035600160a060020a0316610393565b34801561016057600080fd5b506101876004803603602081101561017757600080fd5b5035600160a060020a0316610422565b60408051918252519081900360200190f35b3480156101a557600080fd5b506100d2600480360360208110156101bc57600080fd5b5035600160a060020a031661068f565b3480156101d857600080fd5b506100d2600480360360208110156101ef57600080fd5b5035600160a060020a03166106fb565b34801561020b57600080fd5b506101876108c8565b34801561022057600080fd5b506102296108e8565b60408051600160a060020a0396871681526020810195909552848101939093526060840191909152909216608082015290519081900360a00190f35b34801561027157600080fd5b506100d26004803603604081101561028857600080fd5b50600160a060020a038135811691602001351661090b565b600654600160a060020a03828116911614610305576040805160e560020a62461bcd02815260206004820152601a60248201527f546869732057686f6c6573616c65722069732073656e6465722e000000000000604482015290519081900360640190fd5b6007805473ffffffffffffffffffffffffffffffffffffffff1916600160a060020a03841617905560025b6008805460a060020a60ff02191660a060020a83600681111561034f57fe5b02179055505050565b61036061099f565b5060408051606081018252600654600160a060020a03908116825260075481166020830152600854169181019190915290565b600854600160a060020a038281169116146103f8576040805160e560020a62461bcd02815260206004820152601a60248201527f5468697320506861726d6163792069732072656369657665722e000000000000604482015290519081900360640190fd5b60065b6008805460a060020a60ff02191660a060020a83600681111561041a57fe5b021790555050565b600654600090600160a060020a038381169116148061044e5750600754600160a060020a038381169116145b15156104ca576040805160e560020a62461bcd02815260206004820152603560248201527f4f6e6c792057686f6c6573616c6572206f72204469737472756275746572206360448201527f616e2063616c6c20746869732066756e6374696f6e0000000000000000000000606482015290519081900360840190fd5b60085460019060a060020a900460ff1660068111156104e557fe5b101561053b576040805160e560020a62461bcd02815260206004820152601960248201527f50726f64756374206e6f74207069636b65642075702079657400000000000000604482015290519081900360640190fd5b600654600160a060020a03838116911614801561056f5750600160085460a060020a900460ff16600681111561056d57fe5b145b156105e2576008805460a060020a60ff021916740300000000000000000000000000000000000000001790556006546004546040805160028152600360208201528151600160a060020a03948516949093169230926000805160206109bf833981519152928290030190a450600161068a565b600754600160a060020a0383811691161480156106165750600260085460a060020a900460ff16600681111561061457fe5b145b1561068a576008805460a060020a60ff0219167404000000000000000000000000000000000000000017905560075460048054604080516003815260208101939093528051600160a060020a03948516949092169230926000805160206109bf833981519152929181900390910190a45060025b919050565b600754600160a060020a038281169116146106f4576040805160e560020a62461bcd02815260206004820152601d60248201527f546869732044697374726962757465722069732072656369657665722e000000604482015290519081900360640190fd5b60046103fb565b600454600160a060020a03828116911614610786576040805160e560020a62461bcd02815260206004820152602360248201527f4f6e6c7920536869707065722063616e2063616c6c20746869732066756e637460448201527f696f6e0000000000000000000000000000000000000000000000000000000000606482015290519081900360840190fd5b600060085460a060020a900460ff1660068111156107a057fe5b146107f5576040805160e560020a62461bcd02815260206004820152601c60248201527f5061636b616765206d75737420626520617420537570706c6965722e00000000604482015290519081900360640190fd5b600654600160a060020a03161561085f576008805460a060020a60ff02191660a060020a17905560065460045460408051600180825260208201528151600160a060020a03948516949093169230926000805160206109bf833981519152928290030190a46108c5565b6008805460a060020a60ff0219167402000000000000000000000000000000000000000017905560075460045460408051600180825260208201528151600160a060020a03948516949093169230926000805160206109bf833981519152928290030190a45b50565b60085460009060a060020a900460ff1660068111156108e357fe5b905090565b600554600154600254600354600454600160a060020a0394851694169091929394565b600754600160a060020a03828116911614610970576040805160e560020a62461bcd02815260206004820152601b60248201527f546869732044697374726962757465722069732073656e6465722e0000000000604482015290519081900360640190fd5b6008805473ffffffffffffffffffffffffffffffffffffffff1916600160a060020a0384161790556005610330565b606060405190810160405280600390602082028038833950919291505056fe7e89c4b1a4e2b51aae84eb1f90e8a34cb792ece5ac5cb63db4830c891220b28da165627a7a72305820fcb0a593a67c27b4632172c4e8df5cf7a1a2b4cf3b368ce206bcc8ff3efef4f80029608060405234801561001057600080fd5b506040516080806104ba8339810180604052608081101561003057600080fd5b5080516020820151604083015160609093015160008054600160a060020a0319908116600160a060020a03948516908117835560018054831696861696909617909555600280548216909517909455600380548516958416959095179094556004805490931691161760a060020a60ff02191690556104059081906100b590396000f3fe608060405260043610610050577c01000000000000000000000000000000000000000000000000000000006000350463c442d4fa8114610055578063d2f3fcc714610092578063d8d15ce7146100b9575b600080fd5b34801561006157600080fd5b506100906004803603604081101561007857600080fd5b50600160a060020a03813581169160200135166100f4565b005b34801561009e57600080fd5b506100a7610262565b60408051918252519081900360200190f35b3480156100c557600080fd5b50610090600480360360408110156100dc57600080fd5b50600160a060020a0381358116916020013516610293565b600454600160a060020a0382811691161461019657604080517f08c379a000000000000000000000000000000000000000000000000000000000815260206004820152603260248201527f4f6e6c79205265636569766572284469737472696275746572292063616e206360448201527f616c6c20746869732066756e6374696f6e2e0000000000000000000000000000606482015290519081900360840190fd5b600480546002919074ff000000000000000000000000000000000000000019167401000000000000000000000000000000000000000083021790555081600160a060020a03166358dedf9f826040518263ffffffff167c01000000000000000000000000000000000000000000000000000000000281526004018082600160a060020a0316600160a060020a03168152602001915050600060405180830381600087803b15801561024657600080fd5b505af115801561025a573d6000803e3d6000fd5b505050505050565b60045460009074010000000000000000000000000000000000000000900460ff16600281111561028e57fe5b905090565b600354600160a060020a0382811691161461033457604080517f08c379a0000000000000000000000000000000000000000000000000000000008152602060048201526024808201527f4f6e6c7920536869707065722063616e2063616c6c20746869732066756e637460448201527f696f6e2e00000000000000000000000000000000000000000000000000000000606482015290519081900360840190fd5b6004805474ff000000000000000000000000000000000000000019167401000000000000000000000000000000000000000017808255600254604080517f0cef5cb6000000000000000000000000000000000000000000000000000000008152600160a060020a039384169481019490945290821660248401525190841691630cef5cb691604480830192600092919082900301818387803b15801561024657600080fdfea165627a7a7230582071bac6aa6dd05abff9b97ae5eb5ed405f65ba6467ee81592dd855049dae71d9b002966756e6374696f6e000000000000000000000000000000000000000000000000a165627a7a72305820c863cb0c15ce6647c225061707a42fb04fcd0efa63e4cc73e225a22298627dba0029",
  "source": "pragma solidity >=0.4.25 <0.6.0;\r\n\r\nimport './RawMatrials.sol';\r\nimport './Medicine.sol';\r\nimport './MedicineWholDist.sol';\r\nimport './MedicineDistPhar.sol';\r\n\r\n/// @title Blockchain : Medical SupplyChain\r\n/// @author Ananth R\r\ncontract SupplyChain {\r\n\r\n    /// @notice\r\n    address public Admin;\r\n\r\n    /// @notice\r\n    /// @dev Initiate SupplyChain Contract\r\n    constructor () public\r\n    {\r\n        Admin = msg.sender;\r\n    }\r\n\r\n//----------------------------------------------------------------------------------------------\r\n    /********************* Admin Section ****************************/\r\n\r\n    /// @dev Validate Admin\r\n    modifier onlyAdmin() {\r\n        require(msg.sender == Admin, \"Only Admin can call this function.\");\r\n        _;\r\n    }\r\n\r\n    enum roles {\r\n        norole,\r\n        supplier,\r\n        transporter,\r\n        manufacturer,\r\n        wholesaler,\r\n        distributer,\r\n        pharma,\r\n        revoke\r\n    }\r\n\r\n    event UserRegister(address indexed EthAddress, bytes32 Name);\r\n    event UserRoleRevoked(address indexed EthAddress, bytes32 Name, uint Role);\r\n    event UserRoleRessigned(address indexed EthAddress, bytes32 Name, uint Role);\r\n\r\n    /// @notice\r\n    /// @dev Register New user by Admin\r\n    /// @param EthAddress Ethereum Network Address of User\r\n    /// @param Name Name of user (Username)\r\n    /// @param Location Location of User\r\n    /// @param Role Role of User\r\n    function registerUser(address EthAddress, bytes32 Name, bytes32 Location, uint Role) public onlyAdmin\r\n    {\r\n      require(UsersDetails[EthAddress].role == roles.norole, \"User Already registered\");\r\n      UsersDetails[EthAddress].name = Name;\r\n      UsersDetails[EthAddress].location = Location;\r\n      UsersDetails[EthAddress].ethAddress = EthAddress;\r\n      UsersDetails[EthAddress].role = roles(Role);\r\n      users.push(EthAddress);\r\n      emit UserRegister(EthAddress, Name);\r\n    }\r\n    /// @notice\r\n    /// @dev Revoke User's role\r\n    /// @param userAddress User Ethereum Network Address\r\n    function revokeRole(address userAddress) public onlyAdmin\r\n    {\r\n      require(UsersDetails[userAddress].role != roles.norole, \"User not registered\");\r\n      emit UserRoleRevoked(userAddress, UsersDetails[userAddress].name,uint(UsersDetails[userAddress].role));\r\n      UsersDetails[userAddress].role = roles(7);\r\n    }\r\n    /// @notice\r\n    /// @dev Reassign New Role to User\r\n    /// @param userAddress User Ethereum Network Address\r\n    /// @param Role Role to be assigned\r\n    function reassignRole(address userAddress, uint Role) public onlyAdmin\r\n    {\r\n      require(UsersDetails[userAddress].role != roles.norole, \"User not registered\");\r\n      UsersDetails[userAddress].role = roles(Role);\r\n      emit UserRoleRessigned(userAddress, UsersDetails[userAddress].name, uint(UsersDetails[userAddress].role));\r\n    }\r\n\r\n//------------------------------------------------------------------------------------------------------------------\r\n    /******************* User Section ****************************/\r\n    struct UserInfo\r\n    {\r\n      bytes32 name;\r\n      bytes32 location;\r\n      address ethAddress;\r\n      roles role;\r\n    }\r\n\r\n    /// @notice\r\n    mapping(address => UserInfo) UsersDetails;\r\n    /// @notice\r\n    address[] users;\r\n\r\n    /// @notice\r\n    /// @dev Get User Information\r\n    /// @param User User Ethereum Network Address\r\n    /// @return User Details of User\r\n    function getUserInfo(address User) public view returns(bytes32 name, bytes32 location, address ethAddress, roles role)\r\n    {\r\n      return (UsersDetails[User].name, UsersDetails[User].location, UsersDetails[User].ethAddress, UsersDetails[User].role);\r\n    }\r\n\r\n    /// @notice\r\n    /// @dev Get Number of registered Users\r\n    /// @return Number of registered Users\r\n    function getUsersCount() public view returns(uint count)\r\n    {\r\n      return users.length;\r\n    }\r\n\r\n    /// @notice\r\n    /// @dev Get User by Index value of stored data\r\n    /// @param index Indexed Number\r\n    /// @return User Details of User\r\n    function getUserbyIndex(uint index) public view returns(bytes32 name, bytes32 location, address ethAddress, roles role)\r\n    {\r\n        return getUserInfo(users[index]);\r\n    }\r\n\r\n//---------------------------------------------------------------------------------------------\r\n    /************** Supplier Section (Raw Materials, From LAB) *********************/\r\n    /// @notice\r\n    mapping(address => address[]) supplierRawMaterialsInfo;\r\n    event RawSupplyInit(\r\n        address indexed ProductID,\r\n        address Supplier,\r\n        address indexed Shipper,\r\n        address indexed Receiver\r\n    );\r\n\r\n    /// @notice\r\n    /// @dev Create new Raw Package by Supplier\r\n    function createRawPackage(\r\n        bytes32 Des, //Description of Raw Materials\r\n        bytes32 LN, //Lab Name\r\n        bytes32 Loc, //Lab Location\r\n        uint Quant, //Quantity\r\n        address Shpr, //Shipper Address (Transporter)\r\n        address Rcvr //Reciever Address (Manufacturer)\r\n        ) public\r\n        {\r\n        require(UsersDetails[msg.sender].role == roles.supplier, \"Only Supplier Can call this function \");\r\n        RawMaterials rawData = new RawMaterials(\r\n            msg.sender,\r\n            Des,\r\n            LN,\r\n            Loc,\r\n            Quant,\r\n            Shpr,\r\n            Rcvr\r\n            );\r\n        supplierRawMaterialsInfo[msg.sender].push(address(rawData));\r\n        emit RawSupplyInit(address(rawData), msg.sender, Shpr, Rcvr); //Initialize Raw Materials Supply\r\n    }\r\n\r\n    /// @notice\r\n    /// @dev  Get the Count of created packages by Supplier (LAB)\r\n    /// @return Number of packages\r\n    function getPackagesCountS() public view returns (uint count)\r\n    {\r\n        require(UsersDetails[msg.sender].role == roles.supplier, \"Only Supplier Can call this function\");\r\n        return supplierRawMaterialsInfo[msg.sender].length; //No. of Pakages to be sent from LAB\r\n    }\r\n\r\n    /// @notice\r\n    /// @dev Get PackageID by Indexed value of Stored Data (ID, Shipper and Reciever(Distributer))\r\n    /// @param index Indexed Value\r\n    /// @return PackageID\r\n    function getPackageIdByIndexS(uint index) public view returns(address packageID)\r\n    {\r\n        require(UsersDetails[msg.sender].role == roles.supplier, \"Only Supplier Can call this function\");\r\n        return supplierRawMaterialsInfo[msg.sender][index];\r\n    }\r\n\r\n//-----------------------------------------------------------------------------------------------------------------\r\n    /*********** Transporter Section *********/\r\n\r\n    /// @notice\r\n    /// @dev Load Produec(Medicine) for transporting from one location to another.\r\n    /// @param pid PackageID / MedicineID\r\n    /// @param transportertype Transporter Type\r\n    /// @param cid Contract ID for Transaction\r\n    function loadConsingment(address pid, uint transportertype, address cid) public\r\n    {\r\n        require(UsersDetails[msg.sender].role == roles.transporter, \"Only Transporter can call this function\");\r\n        require(transportertype > 0, \"Transporter Type must be correct\");\r\n\r\n        if(transportertype == 1) // Supplier to Manufacturer\r\n        {\r\n            RawMaterials(pid).pickPackage(msg.sender);\r\n        }\r\n        else if(transportertype == 2) // Manufacturer to Wholesaler OR Manufacturer to Distributer\r\n        {\r\n            Medicine(pid).pickPackage(msg.sender);\r\n        }\r\n        else if(transportertype == 3) // Wholesaler to Distributer\r\n        {\r\n            MedicineWholDist(cid).pickWholDist(pid,msg.sender);\r\n        }\r\n        else if(transportertype == 4) // Distrubuter to Pharmacy\r\n        {\r\n            MedicineDistPhar(cid).pickDistPhar(pid,msg.sender);\r\n        }\r\n    }\r\n\r\n//-------------------------------------------------------------------------------------------\r\n    /************** Manufacturer Section ***************/\r\n    /// @notice\r\n    mapping(address => address[]) RawMaterialsAtManufacturer;\r\n\r\n    /// @notice\r\n    /// @dev Update Medicine recieved status by Manufacturer\r\n    /// @param pid PackageID\r\n    function rawMaterialsReceived(address pid) public\r\n    {\r\n        require(UsersDetails[msg.sender].role == roles.manufacturer, \"Only manufacturer can call this function\");\r\n        RawMaterials(pid).receivedRawMaterials(msg.sender);\r\n        RawMaterialsAtManufacturer[msg.sender].push(pid); //Check if Raw Materials Recieved\r\n    }\r\n\r\n    /// @notice\r\n    /// @dev Get(verify) Raw Materials Package Count at Manufacturer\r\n    /// @return Number of Packages at Manufacturer\r\n    function getPackagesCountManuf() public view returns(uint count)\r\n    {\r\n        require(UsersDetails[msg.sender].role == roles.manufacturer, \"Only Manufacturer can call this function\");\r\n        return RawMaterialsAtManufacturer[msg.sender].length; //Get Count of Materials\r\n    }\r\n\r\n    /// @notice\r\n    /// @dev PackageID by Indexed value of stored data\r\n    /// @param index Indexed Value\r\n    /// @return PackageID\r\n    function getPackageIDByIndexManuf(uint index) public view returns(address BatchID){\r\n        require( UsersDetails[msg.sender].role == roles.manufacturer, \"Only Manufacturer can call this function\");\r\n        return RawMaterialsAtManufacturer[msg.sender][index]; //Get Index Value of Materials\r\n    }\r\n\r\n    /// @notice\r\n    mapping(address => address[]) ManufactureredMedicineBatches;\r\n    event MedicineNewBatch(\r\n        address indexed BatchId,\r\n        address indexed Manufacturer,\r\n        address shipper,\r\n        address indexed Receiver\r\n    );\r\n\r\n    /// @notice\r\n    /// @dev Medicine Batch to send\r\n    /// @param Des Description of the Medicine Batch\r\n    /// @param RM Raw Matrials Information\r\n    /// @param Quant Quantity of Medicine Units\r\n    /// @param Shpr Shipper (Transporter) Ethereum Network Address\r\n    /// @param Rcvr Receiver Ethereum Network Address\r\n    /// @param RcvrType Receiver Type Ethier Wholesaler(1) or Distributer(2)\r\n    function manufactureMedicine(\r\n        bytes32 Des,\r\n        bytes32 RM,\r\n        uint Quant,\r\n        address Shpr,\r\n        address Rcvr,\r\n        uint RcvrType\r\n    ) public\r\n    {\r\n        require(UsersDetails[msg.sender].role == roles.manufacturer, \"Only Manufacturer can call this function\");\r\n        require(RcvrType != 0, \"Receiver Type must be correct\");\r\n\r\n        Medicine m = new Medicine(\r\n            msg.sender,\r\n            Des,\r\n            RM,\r\n            Quant,\r\n            Shpr,\r\n            Rcvr,\r\n            RcvrType\r\n        );\r\n\r\n        ManufactureredMedicineBatches[msg.sender].push(address(m));\r\n        emit MedicineNewBatch(address(m), msg.sender, Shpr, Rcvr); //New Batch Manufactured and sending begins\r\n    }\r\n\r\n    /// @notice\r\n    /// @dev Medicine Batch Count to be sent\r\n    /// @return Number of Batches\r\n    function getBatchesCountManuf() public view returns (uint count)\r\n    {\r\n        require(UsersDetails[msg.sender].role == roles.manufacturer, \"Only Manufacturer Can call this function.\");\r\n        return ManufactureredMedicineBatches[msg.sender].length; //Batch Count to be sent Defined\r\n    }\r\n\r\n    /// @notice\r\n    /// @dev Get Medicine BatchID by indexed value of stored data\r\n    /// @param index Indexed Number\r\n    /// @return Medicine BatchID\r\n    function getBatchIdByIndexManuf(uint index) public view returns(address packageID)\r\n    {\r\n        require(UsersDetails[msg.sender].role == roles.manufacturer, \"Only Manufacturer Can call this function.\");\r\n        return ManufactureredMedicineBatches[msg.sender][index]; //Batch ID of Batch to be sent Given\r\n    }\r\n\r\n//--------------------------------------------------------------------------------------------------------------\r\n    /***************** Wholesaler Section ****************/\r\n    /// @notice\r\n    mapping(address => address[]) MedicineBatchesAtWholesaler;\r\n\r\n    /// @notice\r\n    /// @dev Medicine Batch Received\r\n    /// @param batchid Medicine BatchID\r\n    /// @param cid Contract ID for Medicine\r\n    function medicineReceived(address batchid, address cid) public\r\n    {\r\n        require(UsersDetails[msg.sender].role == roles.wholesaler || UsersDetails[msg.sender].role == roles.distributer, \"Only Wholesaler and Distributer can call this function\");\r\n\r\n        uint rtype = Medicine(batchid).receivedPackage(msg.sender);\r\n        if(rtype == 1)\r\n        {\r\n            MedicineBatchesAtWholesaler[msg.sender].push(batchid); //Batch recieved by Wholesaler\r\n        }\r\n        else if(rtype == 2)\r\n        {\r\n            MedicineBatchesAtWholesaler[msg.sender].push(batchid);\r\n            if(Medicine(batchid).getWholDiPh()[0] != address(0))\r\n            {\r\n                MedicineWholDist(cid).recieveWholDis(batchid, msg.sender); //Batch recieved by Distributer from Wholesaler\r\n            }\r\n        }\r\n    }\r\n\r\n    /// @notice\r\n    mapping(address => address[]) MedicineWholsDist;\r\n    /// @notice\r\n    mapping(address => address) MedicineWholDistTxContract;\r\n\r\n    /// @notice\r\n    /// @dev Sub Contract for Medicine Transfer from Wholesaler to Distributer\r\n    /// @param BatchID Medicine BatchID\r\n    /// @param Shipper Transporter Ethereum Network Address\r\n    /// @param Receiver Distributer Ethereum Network Address\r\n    function transferMedicineWholDist(address BatchID, address Shipper, address Receiver) public\r\n    {\r\n        require(UsersDetails[msg.sender].role == roles.wholesaler && msg.sender == Medicine(BatchID).getWholDiPh()[0], \"Only Wholesaler or current Admin of package can call this function\");\r\n        MedicineWholDist wd = new MedicineWholDist(\r\n            BatchID,\r\n            msg.sender,\r\n            Shipper,\r\n            Receiver\r\n        );\r\n        MedicineWholsDist[msg.sender].push(address(wd));\r\n        MedicineWholDistTxContract[BatchID] = address(wd); //Fransfer from Wholsaler to Dist\r\n    }\r\n\r\n    /// @notice\r\n    /// @dev Get Medicine Batch Count\r\n    /// @return Number of Batches\r\n    function getBatchesCountWD() public view returns (uint count)\r\n    {\r\n        require(UsersDetails[msg.sender].role == roles.wholesaler, \"Only Wholesaler Can call this function.\");\r\n        return MedicineWholsDist[msg.sender].length; //Batches of Medicine\r\n    }\r\n\r\n    /// @notice\r\n    /// @dev Get Medicine BatchID by indexed value of stored data\r\n    /// @param index Indexed Number\r\n    /// @return Medicine BatchID\r\n    function getBatchIdByIndexWD(uint index) public view returns(address packageID)\r\n    {\r\n        require(UsersDetails[msg.sender].role == roles.wholesaler, \"Only Wholesaler Can call this function.\");\r\n        return MedicineWholsDist[msg.sender][index]; //BatchID by Indexed Values\r\n    }\r\n\r\n    /// @notice\r\n    /// @dev Get Sub Contract ID of Medicine Batch Transfer in between Wholesaler to Distributer\r\n    /// @param BatchID BatchID of the Medicine\r\n    /// @return SubContract ID\r\n    function getSubContractWholDist(address BatchID) public view returns (address SubContractWD)\r\n    {\r\n      // require(UsersDetails[msg.sender].role == roles.wholesaler, \"Only Wholesaler Can call this function.\");\r\n      return MedicineWholDistTxContract[BatchID]; //Sub Contract ID Whol to Dist\r\n    }\r\n\r\n//------------------------------------------------------------------------------------------------------------\r\n    /*********** Distributer Section **********/\r\n    /// @notice\r\n    mapping(address => address[]) MedicineBatchAtDistributer;\r\n\r\n    /// @notice\r\n    mapping(address => address[]) MedicineDistrPhar;\r\n\r\n    /// @notice\r\n    mapping(address => address) MedicineDistPharTxContract;\r\n\r\n    /// @notice\r\n    /// @dev Transfer Medicine from Distributer to Pharmacy\r\n    /// @param BatchID Medicine BatchID\r\n    /// @param Shipper Transporter Ethereum Network Address\r\n    /// @param Receiver Pharmacy Ethereum Network Address\r\n    function transferMedicineDtoP(address BatchID, address Shipper, address Receiver) public\r\n    {\r\n      require(UsersDetails[msg.sender].role == roles.distributer && msg.sender == Medicine(BatchID).getWholDiPh()[1], \"Only Distributer or Current Admin of package can call this function\");\r\n      MedicineDistPhar dp = new MedicineDistPhar(\r\n          BatchID,\r\n          msg.sender,\r\n          Shipper,\r\n          Receiver\r\n      );\r\n      MedicineDistrPhar[msg.sender].push(address(dp));\r\n      MedicineDistPharTxContract[BatchID] = address(dp); //Transfer Initiated\r\n    }\r\n\r\n    /// @notice\r\n    /// @dev Get Medicine Batch Count to be sent\r\n    /// @return Number of Batches to be sent to Pharmacty\r\n    function getBatchesCountDistPhar() public view returns (uint count)\r\n    {\r\n      require(UsersDetails[msg.sender].role == roles.distributer, \"Only Distributer Can call this function.\");\r\n      return MedicineDistrPhar[msg.sender].length; //Batch Count to be sent to Pharmacy\r\n    }\r\n\r\n    /// @notice\r\n    /// @dev Get Medicine BatchID by Indexed value of stored data\r\n    /// @param index Index Number\r\n    /// @return Medicine BatchID\r\n    function getBatchIdByIndexDistPhar(uint index) public view returns(address packageID)\r\n    {\r\n      require(UsersDetails[msg.sender].role == roles.distributer, \"Only Distributer Can call this function.\");\r\n      return MedicineDistrPhar[msg.sender][index]; //BatchID of Medicine\r\n    }\r\n\r\n    /// @notice\r\n    /// @dev Get SubContract ID of Medicine Batch Transfer in between Distributer to Pharmacy\r\n    /// @param BatchID Medicine BatchID\r\n    /// @return SubContract ID\r\n    function getSubContractDP(address BatchID) public view returns (address SubContractDP)\r\n    {\r\n      // require(UsersDetails[msg.sender].role == roles.distributer, \"Only Distributer Can call this function.\");\r\n      return MedicineDistPharTxContract[BatchID];\r\n    }\r\n //-------------------------------------------------------------------------------------------------------\r\n    /***************** Pharmacy Section ***********/\r\n    /// @notice\r\n    mapping(address => address[]) MedicineBatchAtPharma;\r\n\r\n    /// @notice\r\n    /// @dev Medicine Batch Recieved from Distrubuter\r\n    /// @param batchid Medicine BatchID\r\n    /// @param cid SubContract ID\r\n    function medicineRecievedAtPharmacy(address batchid, address cid) public\r\n    {\r\n        require(UsersDetails[msg.sender].role == roles.pharma, \"Only Pharmacy Can call this function.\");\r\n        MedicineDistPhar(cid).recieveDistPhar(batchid, msg.sender);\r\n        MedicineBatchAtPharma[msg.sender].push(batchid);\r\n        sale[batchid] = medstatus(1); //Batch Recieved From Distributer\r\n    }\r\n\r\n    enum medstatus {\r\n        notfound,\r\n        atpharma,\r\n        sold,\r\n        expire,\r\n        damaged\r\n    }\r\n\r\n    /// @notice\r\n    mapping(address => medstatus) sale;\r\n\r\n    event MedicineStatus(\r\n        address BatchID,\r\n        address indexed Pharma,\r\n        uint status\r\n    );\r\n\r\n    /// @notice\r\n    /// @dev Update Medicine Batch status\r\n    /// @param BatchID Medicine BatchID\r\n    /// @param Status Medicine Batch Status (such as sold or expired)\r\n    function updateMedStatus(address BatchID, uint Status) public\r\n    {\r\n      require(UsersDetails[msg.sender].role == roles.pharma && msg.sender == Medicine(BatchID).getWholDiPh()[2], \"Only Pharmacy or Current Admin of package can call this function\");\r\n      require(sale[BatchID] == medstatus(1), \"Medicine must be at the Pharmacy\");\r\n      sale[BatchID] = medstatus(Status);\r\n\r\n      emit MedicineStatus(BatchID, msg.sender, Status);\r\n    }\r\n\r\n    /// @notice\r\n    /// @dev Get Medicine Batch status\r\n    /// @param BatchID BatchID of Medicine\r\n    /// @return Status\r\n    function medInfo(address BatchID) public view returns(uint Status)\r\n    {\r\n        return uint(sale[BatchID]); //Get Medicine Batch Status\r\n    }\r\n\r\n    /// @notice\r\n    /// @dev Get Medicine Batch Count\r\n    /// @return Number of Batches\r\n    function getBatchesCountPhar() public view returns(uint count)\r\n    {\r\n        require(UsersDetails[msg.sender].role == roles.pharma, \"Only Wholesaler or current Admin of package can call this function\");\r\n        return  MedicineBatchAtPharma[msg.sender].length; //Number of Medicine\r\n    }\r\n\r\n    /// @notice\r\n    /// @dev Get Medicine BatchID by indexed value of stored data\r\n    /// @param index Index Number\r\n    /// @return BatchID of Medicine at Pharmacy\r\n    function getBatchIdByIndexPhar(uint index) public view returns(address BatchID)\r\n    {\r\n        require(UsersDetails[msg.sender].role == roles.pharma, \"Only Wholesaler or current Admin of package can call this function\");\r\n        return MedicineBatchAtPharma[msg.sender][index]; //BatchID of Medicine\r\n    }\r\n}\r\n",
  "sourcePath": "C:/Users/P. R. RAJAGOPAL/Desktop/BLockchain/Blockchain_SupplyChain/contracts/SupplyChain.sol",
  "compiler": {
    "name": "solc",
    "version": "0.5.1+commit.c8a2cb62.Emscripten.clang"
  },
  "schemaVersion": "3.0.22",
  "updatedAt": "2020-06-25T06:25:16.776Z",
  "devdoc": {
    "author": "Ananth R",
    "methods": {
      "constructor": {
        "details": "Initiate SupplyChain Contract"
      },
      "createRawPackage(bytes32,bytes32,bytes32,uint256,address,address)": {
        "details": "Create new Raw Package by Supplier"
      },
      "getBatchIdByIndexDistPhar(uint256)": {
        "return": "Medicine BatchID"
      },
      "getBatchIdByIndexManuf(uint256)": {
        "return": "Medicine BatchID"
      },
      "getBatchIdByIndexPhar(uint256)": {
        "return": "BatchID of Medicine at Pharmacy"
      },
      "getBatchIdByIndexWD(uint256)": {
        "return": "Medicine BatchID"
      },
      "getBatchesCountDistPhar()": {
        "return": "Number of Batches to be sent to Pharmacty"
      },
      "getBatchesCountManuf()": {
        "return": "Number of Batches"
      },
      "getBatchesCountPhar()": {
        "return": "Number of Batches"
      },
      "getBatchesCountWD()": {
        "return": "Number of Batches"
      },
      "getPackageIDByIndexManuf(uint256)": {
        "return": "PackageID"
      },
      "getPackageIdByIndexS(uint256)": {
        "return": "PackageID"
      },
      "getPackagesCountManuf()": {
        "return": "Number of Packages at Manufacturer"
      },
      "getPackagesCountS()": {
        "return": "Number of packages"
      },
      "getSubContractDP(address)": {
        "return": "SubContract ID"
      },
      "getSubContractWholDist(address)": {
        "return": "SubContract ID"
      },
      "getUserInfo(address)": {
        "return": "User Details of User"
      },
      "getUserbyIndex(uint256)": {
        "return": "User Details of User"
      },
      "getUsersCount()": {
        "return": "Number of registered Users"
      },
      "loadConsingment(address,uint256,address)": {
        "params": {
          "cid": "Contract ID for Transaction"
        }
      },
      "manufactureMedicine(bytes32,bytes32,uint256,address,address,uint256)": {
        "params": {
          "RcvrType": "Receiver Type Ethier Wholesaler(1) or Distributer(2)"
        }
      },
      "medInfo(address)": {
        "return": "Status"
      },
      "medicineReceived(address,address)": {
        "params": {
          "cid": "Contract ID for Medicine"
        }
      },
      "medicineRecievedAtPharmacy(address,address)": {
        "params": {
          "cid": "SubContract ID"
        }
      },
      "rawMaterialsReceived(address)": {
        "params": {
          "pid": "PackageID"
        }
      },
      "reassignRole(address,uint256)": {
        "params": {
          "Role": "Role to be assigned"
        }
      },
      "registerUser(address,bytes32,bytes32,uint256)": {
        "params": {
          "Role": "Role of User"
        }
      },
      "revokeRole(address)": {
        "params": {
          "userAddress": "User Ethereum Network Address"
        }
      },
      "transferMedicineDtoP(address,address,address)": {
        "params": {
          "Receiver": "Pharmacy Ethereum Network Address"
        }
      },
      "transferMedicineWholDist(address,address,address)": {
        "params": {
          "Receiver": "Distributer Ethereum Network Address"
        }
      },
      "updateMedStatus(address,uint256)": {
        "params": {
          "Status": "Medicine Batch Status (such as sold or expired)"
        }
      }
    }
  },
  "userdoc": {
    "methods": {}
  }
}